{
  "abi": [
    {
      "inputs": [],
      "name": "Library__LinkedIdList__InvalidNewId",
      "type": "error"
    },
    {
      "inputs": [
        {
          "internalType": "string",
          "name": "funcSig",
          "type": "string"
        }
      ],
      "name": "Module_OrchestratorCallbackFailed",
      "type": "error"
    },
    {
      "inputs": [],
      "name": "Module__BountyManager__AlreadyClaimed",
      "type": "error"
    },
    {
      "inputs": [],
      "name": "Module__BountyManager__BountyLocked",
      "type": "error"
    },
    {
      "inputs": [],
      "name": "Module__BountyManager__ClaimExceedsGivenPayoutAmounts",
      "type": "error"
    },
    {
      "inputs": [],
      "name": "Module__BountyManager__ContributorsChanged",
      "type": "error"
    },
    {
      "inputs": [],
      "name": "Module__BountyManager__InvalidBountyId",
      "type": "error"
    },
    {
      "inputs": [],
      "name": "Module__BountyManager__InvalidClaimId",
      "type": "error"
    },
    {
      "inputs": [],
      "name": "Module__BountyManager__InvalidContributorAddress",
      "type": "error"
    },
    {
      "inputs": [],
      "name": "Module__BountyManager__InvalidContributorAmount",
      "type": "error"
    },
    {
      "inputs": [],
      "name": "Module__BountyManager__InvalidContributorsLength",
      "type": "error"
    },
    {
      "inputs": [],
      "name": "Module__BountyManager__InvalidPayoutAmounts",
      "type": "error"
    },
    {
      "inputs": [],
      "name": "Module__BountyManager__OnlyClaimContributor",
      "type": "error"
    },
    {
      "inputs": [
        {
          "internalType": "bytes32",
          "name": "role",
          "type": "bytes32"
        },
        {
          "internalType": "address",
          "name": "caller",
          "type": "address"
        }
      ],
      "name": "Module__CallerNotAuthorized",
      "type": "error"
    },
    {
      "inputs": [],
      "name": "Module__CannotCallInit2Again",
      "type": "error"
    },
    {
      "inputs": [],
      "name": "Module__ERC20PaymentClient__ArrayLengthMismatch",
      "type": "error"
    },
    {
      "inputs": [],
      "name": "Module__ERC20PaymentClient__CallerNotAuthorized",
      "type": "error"
    },
    {
      "inputs": [],
      "name": "Module__ERC20PaymentClient__InvalidAmount",
      "type": "error"
    },
    {
      "inputs": [],
      "name": "Module__ERC20PaymentClient__InvalidDueTo",
      "type": "error"
    },
    {
      "inputs": [],
      "name": "Module__ERC20PaymentClient__InvalidRecipient",
      "type": "error"
    },
    {
      "inputs": [],
      "name": "Module__ERC20PaymentClient__TokenTransferFailed",
      "type": "error"
    },
    {
      "inputs": [],
      "name": "Module__InvalidMetadata",
      "type": "error"
    },
    {
      "inputs": [],
      "name": "Module__InvalidOrchestratorAddress",
      "type": "error"
    },
    {
      "inputs": [],
      "name": "Module__NoDependencyOrMalformedDependencyData",
      "type": "error"
    },
    {
      "inputs": [],
      "name": "Module__OnlyCallableByOrchestrator",
      "type": "error"
    },
    {
      "anonymous": false,
      "inputs": [
        {
          "indexed": true,
          "internalType": "uint256",
          "name": "bountyId",
          "type": "uint256"
        },
        {
          "indexed": false,
          "internalType": "uint256",
          "name": "minimumPayoutAmount",
          "type": "uint256"
        },
        {
          "indexed": false,
          "internalType": "uint256",
          "name": "maximumPayoutAmount",
          "type": "uint256"
        },
        {
          "indexed": false,
          "internalType": "bytes",
          "name": "details",
          "type": "bytes"
        }
      ],
      "name": "BountyAdded",
      "type": "event"
    },
    {
      "anonymous": false,
      "inputs": [
        {
          "indexed": true,
          "internalType": "uint256",
          "name": "bountyId",
          "type": "uint256"
        }
      ],
      "name": "BountyLocked",
      "type": "event"
    },
    {
      "anonymous": false,
      "inputs": [
        {
          "indexed": true,
          "internalType": "uint256",
          "name": "bountyId",
          "type": "uint256"
        },
        {
          "indexed": true,
          "internalType": "bytes",
          "name": "details",
          "type": "bytes"
        }
      ],
      "name": "BountyUpdated",
      "type": "event"
    },
    {
      "anonymous": false,
      "inputs": [
        {
          "indexed": true,
          "internalType": "uint256",
          "name": "claimId",
          "type": "uint256"
        },
        {
          "indexed": true,
          "internalType": "uint256",
          "name": "bountyId",
          "type": "uint256"
        },
        {
          "components": [
            {
              "internalType": "address",
              "name": "addr",
              "type": "address"
            },
            {
              "internalType": "uint256",
              "name": "claimAmount",
              "type": "uint256"
            }
          ],
          "indexed": true,
          "internalType": "struct IBountyManager.Contributor[]",
          "name": "contributors",
          "type": "tuple[]"
        },
        {
          "indexed": false,
          "internalType": "bytes",
          "name": "details",
          "type": "bytes"
        }
      ],
      "name": "ClaimAdded",
      "type": "event"
    },
    {
      "anonymous": false,
      "inputs": [
        {
          "indexed": true,
          "internalType": "uint256",
          "name": "claimId",
          "type": "uint256"
        },
        {
          "components": [
            {
              "internalType": "address",
              "name": "addr",
              "type": "address"
            },
            {
              "internalType": "uint256",
              "name": "claimAmount",
              "type": "uint256"
            }
          ],
          "indexed": true,
          "internalType": "struct IBountyManager.Contributor[]",
          "name": "contributors",
          "type": "tuple[]"
        }
      ],
      "name": "ClaimContributorsUpdated",
      "type": "event"
    },
    {
      "anonymous": false,
      "inputs": [
        {
          "indexed": true,
          "internalType": "uint256",
          "name": "claimId",
          "type": "uint256"
        },
        {
          "indexed": false,
          "internalType": "bytes",
          "name": "details",
          "type": "bytes"
        }
      ],
      "name": "ClaimDetailsUpdated",
      "type": "event"
    },
    {
      "anonymous": false,
      "inputs": [
        {
          "indexed": true,
          "internalType": "uint256",
          "name": "claimId",
          "type": "uint256"
        }
      ],
      "name": "ClaimVerified",
      "type": "event"
    },
    {
      "anonymous": false,
      "inputs": [
        {
          "indexed": false,
          "internalType": "uint8",
          "name": "version",
          "type": "uint8"
        }
      ],
      "name": "Initialized",
      "type": "event"
    },
    {
      "anonymous": false,
      "inputs": [
        {
          "indexed": true,
          "internalType": "address",
          "name": "recipient",
          "type": "address"
        },
        {
          "indexed": false,
          "internalType": "uint256",
          "name": "amount",
          "type": "uint256"
        }
      ],
      "name": "PaymentOrderAdded",
      "type": "event"
    },
    {
      "inputs": [],
      "name": "BOUNTY_ISSUER_ROLE",
      "outputs": [
        {
          "internalType": "bytes32",
          "name": "",
          "type": "bytes32"
        }
      ],
      "stateMutability": "view",
      "type": "function"
    },
    {
      "inputs": [],
      "name": "CLAIMANT_ROLE",
      "outputs": [
        {
          "internalType": "bytes32",
          "name": "",
          "type": "bytes32"
        }
      ],
      "stateMutability": "view",
      "type": "function"
    },
    {
      "inputs": [],
      "name": "VERIFIER_ROLE",
      "outputs": [
        {
          "internalType": "bytes32",
          "name": "",
          "type": "bytes32"
        }
      ],
      "stateMutability": "view",
      "type": "function"
    },
    {
      "inputs": [
        {
          "internalType": "uint256",
          "name": "minimumPayoutAmount",
          "type": "uint256"
        },
        {
          "internalType": "uint256",
          "name": "maximumPayoutAmount",
          "type": "uint256"
        },
        {
          "internalType": "bytes",
          "name": "details",
          "type": "bytes"
        }
      ],
      "name": "addBounty",
      "outputs": [
        {
          "internalType": "uint256",
          "name": "id",
          "type": "uint256"
        }
      ],
      "stateMutability": "nonpayable",
      "type": "function"
    },
    {
      "inputs": [
        {
          "internalType": "uint256",
          "name": "bountyId",
          "type": "uint256"
        },
        {
          "components": [
            {
              "internalType": "address",
              "name": "addr",
              "type": "address"
            },
            {
              "internalType": "uint256",
              "name": "claimAmount",
              "type": "uint256"
            }
          ],
          "internalType": "struct IBountyManager.Contributor[]",
          "name": "contributors",
          "type": "tuple[]"
        },
        {
          "internalType": "bytes",
          "name": "details",
          "type": "bytes"
        }
      ],
      "name": "addClaim",
      "outputs": [
        {
          "internalType": "uint256",
          "name": "id",
          "type": "uint256"
        }
      ],
      "stateMutability": "nonpayable",
      "type": "function"
    },
    {
      "inputs": [],
      "name": "collectPaymentOrders",
      "outputs": [
        {
          "components": [
            {
              "internalType": "address",
              "name": "recipient",
              "type": "address"
            },
            {
              "internalType": "uint256",
              "name": "amount",
              "type": "uint256"
            },
            {
              "internalType": "uint256",
              "name": "createdAt",
              "type": "uint256"
            },
            {
              "internalType": "uint256",
              "name": "dueTo",
              "type": "uint256"
            }
          ],
          "internalType": "struct IERC20PaymentClient.PaymentOrder[]",
          "name": "",
          "type": "tuple[]"
        },
        {
          "internalType": "uint256",
          "name": "",
          "type": "uint256"
        }
      ],
      "stateMutability": "nonpayable",
      "type": "function"
    },
    {
      "inputs": [
        {
          "internalType": "bytes",
          "name": "data",
          "type": "bytes"
        }
      ],
      "name": "decoder",
      "outputs": [
        {
          "internalType": "bool",
          "name": "requirement",
          "type": "bool"
        }
      ],
      "stateMutability": "pure",
      "type": "function"
    },
    {
      "inputs": [
        {
          "internalType": "uint256",
          "name": "bountyId",
          "type": "uint256"
        }
      ],
      "name": "getBountyInformation",
      "outputs": [
        {
          "components": [
            {
              "internalType": "uint256",
              "name": "minimumPayoutAmount",
              "type": "uint256"
            },
            {
              "internalType": "uint256",
              "name": "maximumPayoutAmount",
              "type": "uint256"
            },
            {
              "internalType": "bytes",
              "name": "details",
              "type": "bytes"
            },
            {
              "internalType": "bool",
              "name": "locked",
              "type": "bool"
            }
          ],
          "internalType": "struct IBountyManager.Bounty",
          "name": "",
          "type": "tuple"
        }
      ],
      "stateMutability": "view",
      "type": "function"
    },
    {
      "inputs": [
        {
          "internalType": "uint256",
          "name": "claimId",
          "type": "uint256"
        }
      ],
      "name": "getClaimInformation",
      "outputs": [
        {
          "components": [
            {
              "internalType": "uint256",
              "name": "bountyId",
              "type": "uint256"
            },
            {
              "components": [
                {
                  "internalType": "address",
                  "name": "addr",
                  "type": "address"
                },
                {
                  "internalType": "uint256",
                  "name": "claimAmount",
                  "type": "uint256"
                }
              ],
              "internalType": "struct IBountyManager.Contributor[]",
              "name": "contributors",
              "type": "tuple[]"
            },
            {
              "internalType": "bytes",
              "name": "details",
              "type": "bytes"
            },
            {
              "internalType": "bool",
              "name": "claimed",
              "type": "bool"
            }
          ],
          "internalType": "struct IBountyManager.Claim",
          "name": "",
          "type": "tuple"
        }
      ],
      "stateMutability": "view",
      "type": "function"
    },
    {
      "inputs": [
        {
          "internalType": "bytes32",
          "name": "role",
          "type": "bytes32"
        },
        {
          "internalType": "address",
          "name": "addr",
          "type": "address"
        }
      ],
      "name": "grantModuleRole",
      "outputs": [],
      "stateMutability": "nonpayable",
      "type": "function"
    },
    {
      "inputs": [],
      "name": "identifier",
      "outputs": [
        {
          "internalType": "bytes32",
          "name": "",
          "type": "bytes32"
        }
      ],
      "stateMutability": "view",
      "type": "function"
    },
    {
      "inputs": [
        {
          "internalType": "contract IOrchestrator",
          "name": "orchestrator_",
          "type": "address"
        },
        {
          "components": [
            {
              "internalType": "uint256",
              "name": "majorVersion",
              "type": "uint256"
            },
            {
              "internalType": "uint256",
              "name": "minorVersion",
              "type": "uint256"
            },
            {
              "internalType": "string",
              "name": "url",
              "type": "string"
            },
            {
              "internalType": "string",
              "name": "title",
              "type": "string"
            }
          ],
          "internalType": "struct IModule.Metadata",
          "name": "metadata",
          "type": "tuple"
        },
        {
          "internalType": "bytes",
          "name": "",
          "type": "bytes"
        }
      ],
      "name": "init",
      "outputs": [],
      "stateMutability": "nonpayable",
      "type": "function"
    },
    {
      "inputs": [
        {
          "internalType": "contract IOrchestrator",
          "name": "",
          "type": "address"
        },
        {
          "internalType": "bytes",
          "name": "",
          "type": "bytes"
        }
      ],
      "name": "init2",
      "outputs": [],
      "stateMutability": "nonpayable",
      "type": "function"
    },
    {
      "inputs": [
        {
          "internalType": "uint256",
          "name": "bountyId",
          "type": "uint256"
        }
      ],
      "name": "isExistingBountyId",
      "outputs": [
        {
          "internalType": "bool",
          "name": "",
          "type": "bool"
        }
      ],
      "stateMutability": "view",
      "type": "function"
    },
    {
      "inputs": [
        {
          "internalType": "uint256",
          "name": "claimId",
          "type": "uint256"
        }
      ],
      "name": "isExistingClaimId",
      "outputs": [
        {
          "internalType": "bool",
          "name": "",
          "type": "bool"
        }
      ],
      "stateMutability": "view",
      "type": "function"
    },
    {
      "inputs": [],
      "name": "listBountyIds",
      "outputs": [
        {
          "internalType": "uint256[]",
          "name": "",
          "type": "uint256[]"
        }
      ],
      "stateMutability": "view",
      "type": "function"
    },
    {
      "inputs": [],
      "name": "listClaimIds",
      "outputs": [
        {
          "internalType": "uint256[]",
          "name": "",
          "type": "uint256[]"
        }
      ],
      "stateMutability": "view",
      "type": "function"
    },
    {
      "inputs": [
        {
          "internalType": "address",
          "name": "contributorAddrs",
          "type": "address"
        }
      ],
      "name": "listClaimIdsForContributorAddress",
      "outputs": [
        {
          "internalType": "uint256[]",
          "name": "",
          "type": "uint256[]"
        }
      ],
      "stateMutability": "view",
      "type": "function"
    },
    {
      "inputs": [
        {
          "internalType": "uint256",
          "name": "bountyId",
          "type": "uint256"
        }
      ],
      "name": "lockBounty",
      "outputs": [],
      "stateMutability": "nonpayable",
      "type": "function"
    },
    {
      "inputs": [],
      "name": "orchestrator",
      "outputs": [
        {
          "internalType": "contract IOrchestrator",
          "name": "",
          "type": "address"
        }
      ],
      "stateMutability": "view",
      "type": "function"
    },
    {
      "inputs": [],
      "name": "outstandingTokenAmount",
      "outputs": [
        {
          "internalType": "uint256",
          "name": "",
          "type": "uint256"
        }
      ],
      "stateMutability": "view",
      "type": "function"
    },
    {
      "inputs": [],
      "name": "paymentOrders",
      "outputs": [
        {
          "components": [
            {
              "internalType": "address",
              "name": "recipient",
              "type": "address"
            },
            {
              "internalType": "uint256",
              "name": "amount",
              "type": "uint256"
            },
            {
              "internalType": "uint256",
              "name": "createdAt",
              "type": "uint256"
            },
            {
              "internalType": "uint256",
              "name": "dueTo",
              "type": "uint256"
            }
          ],
          "internalType": "struct IERC20PaymentClient.PaymentOrder[]",
          "name": "",
          "type": "tuple[]"
        }
      ],
      "stateMutability": "view",
      "type": "function"
    },
    {
      "inputs": [
        {
          "internalType": "bytes32",
          "name": "role",
          "type": "bytes32"
        },
        {
          "internalType": "address",
          "name": "addr",
          "type": "address"
        }
      ],
      "name": "revokeModuleRole",
      "outputs": [],
      "stateMutability": "nonpayable",
      "type": "function"
    },
    {
      "inputs": [],
      "name": "title",
      "outputs": [
        {
          "internalType": "string",
          "name": "",
          "type": "string"
        }
      ],
      "stateMutability": "view",
      "type": "function"
    },
    {
      "inputs": [
        {
          "internalType": "uint256",
          "name": "bountyId",
          "type": "uint256"
        },
        {
          "internalType": "bytes",
          "name": "details",
          "type": "bytes"
        }
      ],
      "name": "updateBounty",
      "outputs": [],
      "stateMutability": "nonpayable",
      "type": "function"
    },
    {
      "inputs": [
        {
          "internalType": "uint256",
          "name": "claimId",
          "type": "uint256"
        },
        {
          "components": [
            {
              "internalType": "address",
              "name": "addr",
              "type": "address"
            },
            {
              "internalType": "uint256",
              "name": "claimAmount",
              "type": "uint256"
            }
          ],
          "internalType": "struct IBountyManager.Contributor[]",
          "name": "contributors",
          "type": "tuple[]"
        }
      ],
      "name": "updateClaimContributors",
      "outputs": [],
      "stateMutability": "nonpayable",
      "type": "function"
    },
    {
      "inputs": [
        {
          "internalType": "uint256",
          "name": "claimId",
          "type": "uint256"
        },
        {
          "internalType": "bytes",
          "name": "details",
          "type": "bytes"
        }
      ],
      "name": "updateClaimDetails",
      "outputs": [],
      "stateMutability": "nonpayable",
      "type": "function"
    },
    {
      "inputs": [],
      "name": "url",
      "outputs": [
        {
          "internalType": "string",
          "name": "",
          "type": "string"
        }
      ],
      "stateMutability": "view",
      "type": "function"
    },
    {
      "inputs": [
        {
          "internalType": "uint256",
          "name": "claimId",
          "type": "uint256"
        },
        {
          "components": [
            {
              "internalType": "address",
              "name": "addr",
              "type": "address"
            },
            {
              "internalType": "uint256",
              "name": "claimAmount",
              "type": "uint256"
            }
          ],
          "internalType": "struct IBountyManager.Contributor[]",
          "name": "contributors",
          "type": "tuple[]"
        }
      ],
      "name": "verifyClaim",
      "outputs": [],
      "stateMutability": "nonpayable",
      "type": "function"
    },
    {
      "inputs": [],
      "name": "version",
      "outputs": [
        {
          "internalType": "uint256",
          "name": "",
          "type": "uint256"
        },
        {
          "internalType": "uint256",
          "name": "",
          "type": "uint256"
        }
      ],
      "stateMutability": "view",
      "type": "function"
    }
  ],
  "bytecode": {
    "object": "0x60806040523480156200001157600080fd5b506200001c62000022565b620000e4565b600054610100900460ff16156200008f5760405162461bcd60e51b815260206004820152602760248201527f496e697469616c697a61626c653a20636f6e747261637420697320696e697469604482015266616c697a696e6760c81b606482015260840160405180910390fd5b60005460ff9081161015620000e2576000805460ff191660ff9081179091556040519081527f7f26b83ff96e1f2b6a682f133852f6798a09c465da95921460cefb38474024989060200160405180910390a15b565b61508780620000f46000396000f3fe608060405234801561001057600080fd5b50600436106101da5760003560e01c80639bfdf76611610104578063bd769f79116100a2578063cb05296f11610071578063cb05296f14610422578063e2114c8c14610442578063e7705db614610455578063fa4dbd031461047c57600080fd5b8063bd769f79146103d3578063be5a5745146103e6578063bf1f9656146103f9578063c0231ff61461040c57600080fd5b8063a44a6bb2116100de578063a44a6bb214610387578063b5e8bc451461038f578063b74795d914610397578063bcb61920146103c057600080fd5b80639bfdf7661461033e5780639c16f525146103515780639e9785751461036457600080fd5b806354fd4d501161017c57806375fa0b761161014b57806375fa0b76146102d35780637998a1c4146102e85780637bfee048146102f05780638a8673681461031757600080fd5b806354fd4d501461028a5780635600f04f146102a55780635beaeb8c146102ad5780636c67e807146102c057600080fd5b806331de0bdb116101b857806331de0bdb1461023a5780633cd6b5d11461024d57806342dfe958146102625780634a79d50c1461027557600080fd5b80630d97d72c146101df5780632d54a71c1461020557806331be580e1461021a575b600080fd5b6101f26101ed366004614347565b61048f565b6040519081526020015b60405180910390f35b6102186102133660046143c1565b610af1565b005b61022d61022836600461440d565b610d46565b6040516101fc9190614476565b6102186102483660046143c1565b610e91565b6102556111f4565b6040516101fc91906144be565b61021861027036600461461e565b611205565b61027d6113c1565b6040516101fc91906146fa565b603454603554604080519283526020830191909152016101fc565b61027d611456565b6102186102bb36600461470d565b611468565b6102186102ce36600461474c565b6119a7565b6102db611c2a565b6040516101fc91906147e0565b6101f2611cb4565b6101f27f424f554e54595f4953535545520000000000000000000000000000000000000081565b6101f27f434c41494d414e5400000000000000000000000000000000000000000000000081565b61021861034c3660046147f3565b611dff565b61025561035f366004614843565b611e4d565b610377610372366004614860565b611e77565b60405190151581526020016101fc565b6039546101f2565b610255611e94565b60335461010090046001600160a01b03166040516001600160a01b0390911681526020016101fc565b6102186103ce36600461474c565b611ea0565b6101f26103e1366004614895565b6120ee565b6103776103f436600461440d565b612439565b61021861040736600461470d565b612446565b610414612a3a565b6040516101fc9291906148e8565b61043561043036600461440d565b612bd0565b6040516101fc919061490a565b61037761045036600461440d565b612cea565b6101f27f564552494649455200000000000000000000000000000000000000000000000081565b61021861048a36600461440d565b612cf7565b60007f434c41494d414e54000000000000000000000000000000000000000000000000603360019054906101000a90046001600160a01b03166001600160a01b031663d09edf316040518163ffffffff1660e01b8152600401602060405180830381865afa158015610505573d6000803e3d6000fd5b505050506040513d601f19601f8201168201806040525081019061052991906149ad565b6001600160a01b03166391d14854603360019054906101000a90046001600160a01b03166001600160a01b031663d09edf316040518163ffffffff1660e01b8152600401602060405180830381865afa15801561058a573d6000803e3d6000fd5b505050506040513d601f19601f820116820180604052508101906105ae91906149ad565b60405163fdd5205f60e01b8152306004820152602481018590526001600160a01b03919091169063fdd5205f906044016020604051808303816000875af11580156105fd573d6000803e3d6000fd5b505050506040513d601f19601f8201168201806040525081019061062191906149ca565b336040517fffffffff0000000000000000000000000000000000000000000000000000000060e085901b16815260048101929092526001600160a01b03166024820152604401602060405180830381865afa158015610684573d6000803e3d6000fd5b505050506040513d601f19601f820116820180604052508101906106a891906149f8565b6107e157603360019054906101000a90046001600160a01b03166001600160a01b031663d09edf316040518163ffffffff1660e01b8152600401602060405180830381865afa1580156106ff573d6000803e3d6000fd5b505050506040513d601f19601f8201168201806040525081019061072391906149ad565b60405163fdd5205f60e01b8152306004820152602481018390526001600160a01b03919091169063fdd5205f906044016020604051808303816000875af1158015610772573d6000803e3d6000fd5b505050506040513d601f19601f8201168201806040525081019061079691906149ca565b335b6040517f42abbb7700000000000000000000000000000000000000000000000000000000815260048101929092526001600160a01b031660248201526044015b60405180910390fd5b866107eb81612439565b610821576040517f4511bb2500000000000000000000000000000000000000000000000000000000815260040160405180910390fd5b6000888152603b6020526040902060030154889060ff161561086f576040517f630a60dc00000000000000000000000000000000000000000000000000000000815260040160405180910390fd5b61099f8888808060200260200160405190810160405280939291908181526020016000905b828210156108c0576108b160408302860136819003810190614a13565b81526020019060010190610894565b5050505050603b60008c8152602001908152602001600020604051806080016040529081600082015481526020016001820154815260200160028201805461090790614a6b565b80601f016020809104026020016040519081016040528092919081815260200182805461093390614a6b565b80156109805780601f1061095557610100808354040283529160200191610980565b820191906000526020600020905b81548152906001019060200180831161096357829003601f168201915b50505091835250506003919091015460ff16151560209091015261303c565b6000603a600081546109b090614ae7565b918290555090506109c26040826131ed565b6000818152603f602052604081208b81559089905b81811015610a7d57826001018c8c838181106109f5576109f5614b01565b835460018101855560009485526020909420604090910292909201926002029091019050610a238282614b30565b5050610a7484604360008f8f86818110610a3f57610a3f614b01565b610a559260206040909202019081019150614843565b6001600160a01b0316815260208101919091526040016000209061327a565b506001016109d7565b5060028201610a8d898b83614bc9565b508a8a604051610a9e929190614c89565b60405180910390208c847f23ea023b108a98377fb5440ffbb7fe7a5c3827c821ef0e16fbd60af8b93cddac8c8c604051610ad9929190614cff565b60405180910390a450909a9950505050505050505050565b82610afb81612cea565b610b31576040517ff76e9aef00000000000000000000000000000000000000000000000000000000815260040160405180910390fd5b6000848152603f6020526040902060030154849060ff1615610b7f576040517fd4b93ddf00000000000000000000000000000000000000000000000000000000815260040160405180910390fd5b6000858152603f6020908152604080832054808452603b9092529091206003015460ff1615610bda576040517f630a60dc00000000000000000000000000000000000000000000000000000000815260040160405180910390fd5b6000868152603f6020908152604080832060010180548251818502810185019093528083528a9433949093929190849084015b82821015610c55576000848152602090819020604080518082019091526002850290910180546001600160a01b03168252600190810154828401529083529092019101610c0d565b5050825192935060009150505b81811015610ca957836001600160a01b0316838281518110610c8657610c86614b01565b6020026020010151600001516001600160a01b03160315610ca957600101610c62565b818110610ce2576040517f0a3b474000000000000000000000000000000000000000000000000000000000815260040160405180910390fd5b60008b8152603f60205260409020600201610cfe8a8c83614bc9565b508a7f4128fe4992a5cb5a9cb54a23107ba2cd9db975f7f66fd5a978927aaf54350a998b8b604051610d31929190614cff565b60405180910390a25050505050505050505050565b610d7360405180608001604052806000815260200160008152602001606081526020016000151581525090565b81610d7d81612439565b610db3576040517f4511bb2500000000000000000000000000000000000000000000000000000000815260040160405180910390fd5b603b60008481526020019081526020016000206040518060800160405290816000820154815260200160018201548152602001600282018054610df590614a6b565b80601f0160208091040260200160405190810160405280929190818152602001828054610e2190614a6b565b8015610e6e5780601f10610e4357610100808354040283529160200191610e6e565b820191906000526020600020905b815481529060010190602001808311610e5157829003601f168201915b50505091835250506003919091015460ff16151560209091015291505b50919050565b7f424f554e54595f49535355455200000000000000000000000000000000000000603360019054906101000a90046001600160a01b03166001600160a01b031663d09edf316040518163ffffffff1660e01b8152600401602060405180830381865afa158015610f05573d6000803e3d6000fd5b505050506040513d601f19601f82011682018060405250810190610f2991906149ad565b6001600160a01b03166391d14854603360019054906101000a90046001600160a01b03166001600160a01b031663d09edf316040518163ffffffff1660e01b8152600401602060405180830381865afa158015610f8a573d6000803e3d6000fd5b505050506040513d601f19601f82011682018060405250810190610fae91906149ad565b60405163fdd5205f60e01b8152306004820152602481018590526001600160a01b03919091169063fdd5205f906044016020604051808303816000875af1158015610ffd573d6000803e3d6000fd5b505050506040513d601f19601f8201168201806040525081019061102191906149ca565b336040517fffffffff0000000000000000000000000000000000000000000000000000000060e085901b16815260048101929092526001600160a01b03166024820152604401602060405180830381865afa158015611084573d6000803e3d6000fd5b505050506040513d601f19601f820116820180604052508101906110a891906149f8565b6110ff57603360019054906101000a90046001600160a01b03166001600160a01b031663d09edf316040518163ffffffff1660e01b8152600401602060405180830381865afa1580156106ff573d6000803e3d6000fd5b8361110981612439565b61113f576040517f4511bb2500000000000000000000000000000000000000000000000000000000815260040160405180910390fd5b6000858152603b6020526040902060030154859060ff161561118d576040517f630a60dc00000000000000000000000000000000000000000000000000000000815260040160405180910390fd5b6000868152603b602052604090206002016111a9858783614bc9565b5084846040516111ba929190614d13565b6040519081900381209087907f5b748b1bf798d437f4457fa662e95d5b99ba7c5c739e2d6342c7d06c4ad4300790600090a3505050505050565b6060611200604061328d565b905090565b600054610100900460ff16158080156112255750600054600160ff909116105b8061123f5750303b15801561123f575060005460ff166001145b6112b15760405162461bcd60e51b815260206004820152602e60248201527f496e697469616c697a61626c653a20636f6e747261637420697320616c72656160448201527f647920696e697469616c697a656400000000000000000000000000000000000060648201526084016107d8565b6000805460ff1916600117905580156112f157600080547fffffffffffffffffffffffffffffffffffffffffffffffffffffffffffff00ff166101001790555b6112fb8484613347565b60001960008190527f18b7a63bf50666b95157575521b858746cbae206cdc4acb322a065d3fd444aeb819055603d81905560426020527f08ad878264fb6114f908de715b98126ae5e313edca37361587095aa79974982c81905560415580156113bb57600080547fffffffffffffffffffffffffffffffffffffffffffffffffffffffffffff00ff169055604051600181527f7f26b83ff96e1f2b6a682f133852f6798a09c465da95921460cefb38474024989060200160405180910390a15b50505050565b6060603460030180546113d390614a6b565b80601f01602080910402602001604051908101604052809291908181526020018280546113ff90614a6b565b801561144c5780601f106114215761010080835404028352916020019161144c565b820191906000526020600020905b81548152906001019060200180831161142f57829003601f168201915b5050505050905090565b6060603460020180546113d390614a6b565b8261147281612cea565b6114a8576040517ff76e9aef00000000000000000000000000000000000000000000000000000000815260040160405180910390fd5b6000848152603f6020526040902060030154849060ff16156114f6576040517fd4b93ddf00000000000000000000000000000000000000000000000000000000815260040160405180910390fd5b6000858152603f6020908152604080832054808452603b9092529091206003015460ff1615611551576040517f630a60dc00000000000000000000000000000000000000000000000000000000815260040160405180910390fd5b7f434c41494d414e54000000000000000000000000000000000000000000000000603360019054906101000a90046001600160a01b03166001600160a01b031663d09edf316040518163ffffffff1660e01b8152600401602060405180830381865afa1580156115c5573d6000803e3d6000fd5b505050506040513d601f19601f820116820180604052508101906115e991906149ad565b6001600160a01b03166391d14854603360019054906101000a90046001600160a01b03166001600160a01b031663d09edf316040518163ffffffff1660e01b8152600401602060405180830381865afa15801561164a573d6000803e3d6000fd5b505050506040513d601f19601f8201168201806040525081019061166e91906149ad565b60405163fdd5205f60e01b8152306004820152602481018590526001600160a01b03919091169063fdd5205f906044016020604051808303816000875af11580156116bd573d6000803e3d6000fd5b505050506040513d601f19601f820116820180604052508101906116e191906149ca565b336040517fffffffff0000000000000000000000000000000000000000000000000000000060e085901b16815260048101929092526001600160a01b03166024820152604401602060405180830381865afa158015611744573d6000803e3d6000fd5b505050506040513d601f19601f8201168201806040525081019061176891906149f8565b6117bf57603360019054906101000a90046001600160a01b03166001600160a01b031663d09edf316040518163ffffffff1660e01b8152600401602060405180830381865afa1580156106ff573d6000803e3d6000fd5b6118618686808060200260200160405190810160405280939291908181526020016000905b828210156118105761180160408302860136819003810190614a13565b815260200190600101906117e4565b50505060008b8152603f60209081526040808320548352603b825291829020825160808101845281548152600182015492810192909252600281018054929550909350918401919061090790614a6b565b6000878152603f60205260408120600181015490915b818110156118d4576118cb8a6043600086600101858154811061189c5761189c614b01565b600091825260208083206002909202909101546001600160a01b031683528201929092526040019020906134ba565b50600101611877565b506118e36001830160006141e9565b508560005b81811015611959578260010189898381811061190657611906614b01565b8354600181018555600094855260209094206040909102929092019260020290910190506119348282614b30565b50506119508a604360008c8c86818110610a3f57610a3f614b01565b506001016118e8565b50878760405161196a929190614c89565b604051908190038120908a907f1d41ce0f1e2efe8a516e804c8208a8a92b1931eb13d5c7be8847790b6eb25ec190600090a3505050505050505050565b6000603360019054906101000a90046001600160a01b03166001600160a01b031663d09edf316040518163ffffffff1660e01b8152600401602060405180830381865afa1580156119fc573d6000803e3d6000fd5b505050506040513d601f19601f82011682018060405250810190611a2091906149ad565b90506000816001600160a01b03166355ff58d46040518163ffffffff1660e01b8152600401602060405180830381865afa158015611a62573d6000803e3d6000fd5b505050506040513d601f19601f82011682018060405250810190611a8691906149ca565b90506001600160a01b0382166391d1485482336040517fffffffff0000000000000000000000000000000000000000000000000000000060e085901b16815260048101929092526001600160a01b03166024820152604401602060405180830381865afa158015611afb573d6000803e3d6000fd5b505050506040513d601f19601f82011682018060405250810190611b1f91906149f8565b611b2a578033610798565b6000603360019054906101000a90046001600160a01b03166001600160a01b031663d09edf316040518163ffffffff1660e01b8152600401602060405180830381865afa158015611b7f573d6000803e3d6000fd5b505050506040513d601f19601f82011682018060405250810190611ba391906149ad565b6040517fe1788154000000000000000000000000000000000000000000000000000000008152600481018790526001600160a01b0386811660248301529192509082169063e1788154906044015b600060405180830381600087803b158015611c0b57600080fd5b505af1158015611c1f573d6000803e3d6000fd5b505050505050505050565b60606038805480602002602001604051908101604052809291908181526020016000905b82821015611cab576000848152602090819020604080516080810182526004860290920180546001600160a01b03168352600180820154848601526002820154928401929092526003015460608301529083529092019101611c4e565b50505050905090565b6040805160808101825260348054825260355460208301526036805460009461120094939290840191611ce690614a6b565b80601f0160208091040260200160405190810160405280929190818152602001828054611d1290614a6b565b8015611d5f5780601f10611d3457610100808354040283529160200191611d5f565b820191906000526020600020905b815481529060010190602001808311611d4257829003601f168201915b50505050508152602001600382018054611d7890614a6b565b80601f0160208091040260200160405190810160405280929190818152602001828054611da490614a6b565b8015611df15780601f10611dc657610100808354040283529160200191611df1565b820191906000526020600020905b815481529060010190602001808311611dd457829003601f168201915b5050505050815250506134c6565b60335460ff1615611e3c576040517f904875a100000000000000000000000000000000000000000000000000000000815260040160405180910390fd5b50506033805460ff19166001179055565b6001600160a01b0381166000908152604360205260409020606090611e7190613506565b92915050565b600081806020019051810190611e8d9190614d53565b5092915050565b6060611200603c61328d565b6000603360019054906101000a90046001600160a01b03166001600160a01b031663d09edf316040518163ffffffff1660e01b8152600401602060405180830381865afa158015611ef5573d6000803e3d6000fd5b505050506040513d601f19601f82011682018060405250810190611f1991906149ad565b90506000816001600160a01b03166355ff58d46040518163ffffffff1660e01b8152600401602060405180830381865afa158015611f5b573d6000803e3d6000fd5b505050506040513d601f19601f82011682018060405250810190611f7f91906149ca565b90506001600160a01b0382166391d1485482336040517fffffffff0000000000000000000000000000000000000000000000000000000060e085901b16815260048101929092526001600160a01b03166024820152604401602060405180830381865afa158015611ff4573d6000803e3d6000fd5b505050506040513d601f19601f8201168201806040525081019061201891906149f8565b612023578033610798565b6000603360019054906101000a90046001600160a01b03166001600160a01b031663d09edf316040518163ffffffff1660e01b8152600401602060405180830381865afa158015612078573d6000803e3d6000fd5b505050506040513d601f19601f8201168201806040525081019061209c91906149ad565b6040517fba66f9fc000000000000000000000000000000000000000000000000000000008152600481018790526001600160a01b0386811660248301529192509082169063ba66f9fc90604401611bf1565b60007f424f554e54595f49535355455200000000000000000000000000000000000000603360019054906101000a90046001600160a01b03166001600160a01b031663d09edf316040518163ffffffff1660e01b8152600401602060405180830381865afa158015612164573d6000803e3d6000fd5b505050506040513d601f19601f8201168201806040525081019061218891906149ad565b6001600160a01b03166391d14854603360019054906101000a90046001600160a01b03166001600160a01b031663d09edf316040518163ffffffff1660e01b8152600401602060405180830381865afa1580156121e9573d6000803e3d6000fd5b505050506040513d601f19601f8201168201806040525081019061220d91906149ad565b60405163fdd5205f60e01b8152306004820152602481018590526001600160a01b03919091169063fdd5205f906044016020604051808303816000875af115801561225c573d6000803e3d6000fd5b505050506040513d601f19601f8201168201806040525081019061228091906149ca565b336040517fffffffff0000000000000000000000000000000000000000000000000000000060e085901b16815260048101929092526001600160a01b03166024820152604401602060405180830381865afa1580156122e3573d6000803e3d6000fd5b505050506040513d601f19601f8201168201806040525081019061230791906149f8565b61235e57603360019054906101000a90046001600160a01b03166001600160a01b031663d09edf316040518163ffffffff1660e01b8152600401602060405180830381865afa1580156106ff573d6000803e3d6000fd5b858581158061236c57508181105b156123a3576040517f75339e3d00000000000000000000000000000000000000000000000000000000815260040160405180910390fd5b6000603a600081546123b490614ae7565b918290555090506123c6603c826131ed565b6000818152603b6020526040902089815560018101899055600281016123ed888a83614bc9565b50817f16aa89bae6ad0e0b7a94b930e87a8e04b02978ed503e2698b1b6359416e1ac838b8b8b8b6040516124249493929190614e3f565b60405180910390a25098975050505050505050565b6000611e71603c83613513565b7f5645524946494552000000000000000000000000000000000000000000000000603360019054906101000a90046001600160a01b03166001600160a01b031663d09edf316040518163ffffffff1660e01b8152600401602060405180830381865afa1580156124ba573d6000803e3d6000fd5b505050506040513d601f19601f820116820180604052508101906124de91906149ad565b6001600160a01b03166391d14854603360019054906101000a90046001600160a01b03166001600160a01b031663d09edf316040518163ffffffff1660e01b8152600401602060405180830381865afa15801561253f573d6000803e3d6000fd5b505050506040513d601f19601f8201168201806040525081019061256391906149ad565b60405163fdd5205f60e01b8152306004820152602481018590526001600160a01b03919091169063fdd5205f906044016020604051808303816000875af11580156125b2573d6000803e3d6000fd5b505050506040513d601f19601f820116820180604052508101906125d691906149ca565b336040517fffffffff0000000000000000000000000000000000000000000000000000000060e085901b16815260048101929092526001600160a01b03166024820152604401602060405180830381865afa158015612639573d6000803e3d6000fd5b505050506040513d601f19601f8201168201806040525081019061265d91906149f8565b6126b457603360019054906101000a90046001600160a01b03166001600160a01b031663d09edf316040518163ffffffff1660e01b8152600401602060405180830381865afa1580156106ff573d6000803e3d6000fd5b836126be81612cea565b6126f4576040517ff76e9aef00000000000000000000000000000000000000000000000000000000815260040160405180910390fd5b6000858152603f6020526040902060030154859060ff1615612742576040517fd4b93ddf00000000000000000000000000000000000000000000000000000000815260040160405180910390fd5b6000868152603f6020908152604080832054808452603b9092529091206003015460ff161561279d576040517f630a60dc00000000000000000000000000000000000000000000000000000000815260040160405180910390fd5b6127f9878787808060200260200160405190810160405280939291908181526020016000905b828210156127ef576127e060408302860136819003810190614a13565b815260200190600101906127c3565b5050505050613538565b6000878152603f6020908152604080832060010180548251818502810185019093528083529192909190849084015b82821015612870576000848152602090819020604080518082019091526002850290910180546001600160a01b03168252600190810154828401529083529092019101612828565b5050825160408051808201909152600080825260208201529394509291506128959050565b60005b828110156128fe578381815181106128b2576128b2614b01565b602002602001015191506128f6604051806080016040528084600001516001600160a01b031681526020018460200151815260200142815260200142815250613698565b600101612898565b50603360019054906101000a90046001600160a01b03166001600160a01b031663f1c6bdf86040518163ffffffff1660e01b8152600401602060405180830381865afa158015612952573d6000803e3d6000fd5b505050506040513d601f19601f8201168201806040525081019061297691906149ad565b6040517fe151fc610000000000000000000000000000000000000000000000000000000081523060048201526001600160a01b03919091169063e151fc6190602401600060405180830381600087803b1580156129d257600080fd5b505af11580156129e6573d6000803e3d6000fd5b50505060008b8152603f6020526040808220600301805460ff19166001179055518c92507f393efda0b92bc01071b66a816d6bcddde867b8c91da505a0f309d9133a53650a9190a250505050505050505050565b60606000612a47336137eb565b612a7d576040517f9c18b87800000000000000000000000000000000000000000000000000000000815260040160405180910390fd5b612a893360395461387e565b60385460008167ffffffffffffffff811115612aa757612aa7614517565b604051908082528060200260200182016040528015612b0c57816020015b612af9604051806080016040528060006001600160a01b031681526020016000815260200160008152602001600081525090565b815260200190600190039081612ac55790505b50905060005b82811015612ba75760388181548110612b2d57612b2d614b01565b600091825260209182902060408051608081018252600490930290910180546001600160a01b0316835260018101549383019390935260028301549082015260039091015460608201528251839083908110612b8b57612b8b614b01565b602002602001018190525080612ba090614ae7565b9050612b12565b50612bb46038600061420a565b603980546000909155612bc681613a10565b9094909350915050565b612bfd60405180608001604052806000815260200160608152602001606081526020016000151581525090565b81612c0781612cea565b612c3d576040517ff76e9aef00000000000000000000000000000000000000000000000000000000815260040160405180910390fd5b603f60008481526020019081526020016000206040518060800160405290816000820154815260200160018201805480602002602001604051908101604052809291908181526020016000905b82821015612cd2576000848152602090819020604080518082019091526002850290910180546001600160a01b03168252600190810154828401529083529092019101612c8a565b505050508152602001600282018054610df590614a6b565b6000611e71604083613513565b7f424f554e54595f49535355455200000000000000000000000000000000000000603360019054906101000a90046001600160a01b03166001600160a01b031663d09edf316040518163ffffffff1660e01b8152600401602060405180830381865afa158015612d6b573d6000803e3d6000fd5b505050506040513d601f19601f82011682018060405250810190612d8f91906149ad565b6001600160a01b03166391d14854603360019054906101000a90046001600160a01b03166001600160a01b031663d09edf316040518163ffffffff1660e01b8152600401602060405180830381865afa158015612df0573d6000803e3d6000fd5b505050506040513d601f19601f82011682018060405250810190612e1491906149ad565b60405163fdd5205f60e01b8152306004820152602481018590526001600160a01b03919091169063fdd5205f906044016020604051808303816000875af1158015612e63573d6000803e3d6000fd5b505050506040513d601f19601f82011682018060405250810190612e8791906149ca565b336040517fffffffff0000000000000000000000000000000000000000000000000000000060e085901b16815260048101929092526001600160a01b03166024820152604401602060405180830381865afa158015612eea573d6000803e3d6000fd5b505050506040513d601f19601f82011682018060405250810190612f0e91906149f8565b612f6557603360019054906101000a90046001600160a01b03166001600160a01b031663d09edf316040518163ffffffff1660e01b8152600401602060405180830381865afa1580156106ff573d6000803e3d6000fd5b81612f6f81612439565b612fa5576040517f4511bb2500000000000000000000000000000000000000000000000000000000815260040160405180910390fd5b6000838152603b6020526040902060030154839060ff1615612ff3576040517f630a60dc00000000000000000000000000000000000000000000000000000000815260040160405180910390fd5b6000848152603b6020526040808220600301805460ff191660011790555185917fa0e18720f77efbbf5292a427112cd5b87106c4dd3e6b27fe1fa001090a508a4091a250505050565b81516000819003613079576040517f93918c2c00000000000000000000000000000000000000000000000000000000815260040160405180910390fd5b6033546000908190819061010090046001600160a01b0316815b8581101561319a578781815181106130ad576130ad614b01565b6020026020010151602001519350836000036130f5576040517f6063810000000000000000000000000000000000000000000000000000000000815260040160405180910390fd5b87818151811061310757613107614b01565b60209081029190910101515192506001600160a01b038316158061313357506001600160a01b03831630145b8061314f5750816001600160a01b0316836001600160a01b0316145b15613186576040517fe7ae61ce00000000000000000000000000000000000000000000000000000000815260040160405180910390fd5b6131908486614e69565b9450600101613093565b5085602001518411806131ad5750855184105b156131e4576040517fae68040f00000000000000000000000000000000000000000000000000000000815260040160405180910390fd5b50505050505050565b81816131f98282613513565b80613202575080155b15613239576040517f582fbbaf00000000000000000000000000000000000000000000000000000000815260040160405180910390fd5b60018401805460009081526002860160205260408082208690558582528120600019905590849055845490859061326f83614ae7565b919050555050505050565b60006132868383613bcc565b9392505050565b60606000826000015467ffffffffffffffff8111156132ae576132ae614517565b6040519080825280602002602001820160405280156132d7578160200160208202803683370190505b506000196000908152600285016020526040812054919250905b600019811461333e578083838151811061330d5761330d614b01565b602090810291909101810191909152600091825260028601905260409020548161333681614ae7565b9250506132f1565b50909392505050565b600054610100900460ff166133c45760405162461bcd60e51b815260206004820152602b60248201527f496e697469616c697a61626c653a20636f6e7472616374206973206e6f74206960448201527f6e697469616c697a696e6700000000000000000000000000000000000000000060648201526084016107d8565b6001600160a01b038216613404576040517f7280679300000000000000000000000000000000000000000000000000000000815260040160405180910390fd5b603380547fffffffffffffffffffffff0000000000000000000000000000000000000000ff166101006001600160a01b0385160217905561344481613c1b565b61347a576040517f7511254100000000000000000000000000000000000000000000000000000000815260040160405180910390fd5b805160349081556020820151603555604082015182919060369061349e9082614e7c565b50606082015160038201906134b39082614e7c565b5050505050565b60006132868383613c6d565b60008160000151826040015183606001516040516020016134e993929190614f3c565b604051602081830303815290604052805190602001209050919050565b6060600061328683613d60565b6000818152600283016020526040812054158015906132865750506000191415919050565b6000828152603f6020908152604080832060010180548251818502810185019093528083529192909190849084015b828210156135af576000848152602090819020604080518082019091526002850290910180546001600160a01b03168252600190810154828401529083529092019101613567565b5050845192935060009150505b818110156134b3578281815181106135d6576135d6614b01565b6020026020010151600001516001600160a01b03168482815181106135fd576135fd614b01565b6020026020010151600001516001600160a01b0316141580613659575082818151811061362c5761362c614b01565b60200260200101516020015184828151811061364a5761364a614b01565b60200260200101516020015114155b15613690576040517f545bebd200000000000000000000000000000000000000000000000000000000815260040160405180910390fd5b6001016135bc565b806136a281613dbc565b8160200151603960008282546136b89190614e69565b909155505060388054600181018255600091909152825160049091027f38395c5dceade9603479b177b68959049485df8aa97b39f3533039af5f456199810180546001600160a01b039093167fffffffffffffffffffffffff00000000000000000000000000000000000000009093168317905560208401517f38395c5dceade9603479b177b68959049485df8aa97b39f3533039af5f45619a82018190556040808601517f38395c5dceade9603479b177b68959049485df8aa97b39f3533039af5f45619b84015560608601517f38395c5dceade9603479b177b68959049485df8aa97b39f3533039af5f45619c9093019290925590517ffc9138d87583f51297afba99687e2a6bcf276a5e3e3ccec11b3ca0052ac2e9d9916137df9190815260200190565b60405180910390a25050565b6000816001600160a01b0316603360019054906101000a90046001600160a01b03166001600160a01b031663f1c6bdf86040518163ffffffff1660e01b8152600401602060405180830381865afa15801561384a573d6000803e3d6000fd5b505050506040513d601f19601f8201168201806040525081019061386e91906149ad565b6001600160a01b03161492915050565b6000603360019054906101000a90046001600160a01b03166001600160a01b03166304baed9e6040518163ffffffff1660e01b8152600401602060405180830381865afa1580156138d3573d6000803e3d6000fd5b505050506040513d601f19601f820116820180604052508101906138f791906149ad565b6001600160a01b031663fc0c546a6040518163ffffffff1660e01b8152600401602060405180830381865afa158015613934573d6000803e3d6000fd5b505050506040513d601f19601f8201168201806040525081019061395891906149ad565b6040517fdd62ed3e0000000000000000000000000000000000000000000000000000000081523060048201526001600160a01b03858116602483015291925060009183169063dd62ed3e90604401602060405180830381865afa1580156139c3573d6000803e3d6000fd5b505050506040513d601f19601f820116820180604052508101906139e791906149ca565b9050828110156113bb576113bb846139ff8386614f79565b6001600160a01b0385169190613e54565b603354604080517f04baed9e000000000000000000000000000000000000000000000000000000008152905160009261010090046001600160a01b03169163685dc6b19183916304baed9e9160048083019260209291908290030181865afa158015613a80573d6000803e3d6000fd5b505050506040513d601f19601f82011682018060405250810190613aa491906149ad565b6040513060248201526044810186905260640160408051601f198184030181529181526020820180517bffffffffffffffffffffffffffffffffffffffffffffffffffffffff167f759cc4b500000000000000000000000000000000000000000000000000000000179052517fffffffff0000000000000000000000000000000000000000000000000000000060e085901b168152613b47929190600401614f8c565b6000604051808303816000875af1158015613b66573d6000803e3d6000fd5b505050506040513d6000823e601f3d908101601f19168201604052613b8e9190810190614fae565b50905080613bc8576040517fa9a9111100000000000000000000000000000000000000000000000000000000815260040160405180910390fd5b5050565b6000818152600183016020526040812054613c1357508154600181810184556000848152602080822090930184905584548482528286019093526040902091909155611e71565b506000611e71565b6000816040015151600003613c3257506000919050565b816060015151600003613c4757506000919050565b8151158015613c5857506020820151155b15613c6557506000919050565b506001919050565b60008181526001830160205260408120548015613d56576000613c91600183614f79565b8554909150600090613ca590600190614f79565b9050818114613d0a576000866000018281548110613cc557613cc5614b01565b9060005260206000200154905080876000018481548110613ce857613ce8614b01565b6000918252602080832090910192909255918252600188019052604090208390555b8554869080613d1b57613d1b615006565b600190038181906000526020600020016000905590558560010160008681526020019081526020016000206000905560019350505050611e71565b6000915050611e71565b606081600001805480602002602001604051908101604052809291908181526020018280548015613db057602002820191906000526020600020905b815481526020019060010190808311613d9c575b50505050509050919050565b8060200151600003613dfa576040517f53b30ec100000000000000000000000000000000000000000000000000000000815260040160405180910390fd5b80516001600160a01b03161580613e1a575080516001600160a01b031630145b15613e51576040517ff541b81500000000000000000000000000000000000000000000000000000000815260040160405180910390fd5b50565b6040517fdd62ed3e0000000000000000000000000000000000000000000000000000000081523060048201526001600160a01b038381166024830152600091839186169063dd62ed3e90604401602060405180830381865afa158015613ebe573d6000803e3d6000fd5b505050506040513d601f19601f82011682018060405250810190613ee291906149ca565b613eec9190614e69565b604080516001600160a01b03868116602483015260448083018590528351808403909101815260649092018352602080830180517bffffffffffffffffffffffffffffffffffffffffffffffffffffffff167f095ea7b30000000000000000000000000000000000000000000000000000000017905283518085019094528084527f5361666545524332303a206c6f772d6c6576656c2063616c6c206661696c6564908401529293506113bb928792600091613fad91908516908490614042565b80519091501561403d5780806020019051810190613fcb91906149f8565b61403d5760405162461bcd60e51b815260206004820152602a60248201527f5361666545524332303a204552433230206f7065726174696f6e20646964206e60448201527f6f7420737563636565640000000000000000000000000000000000000000000060648201526084016107d8565b505050565b60606140518484600085614059565b949350505050565b6060824710156140d15760405162461bcd60e51b815260206004820152602660248201527f416464726573733a20696e73756666696369656e742062616c616e636520666f60448201527f722063616c6c000000000000000000000000000000000000000000000000000060648201526084016107d8565b600080866001600160a01b031685876040516140ed9190615035565b60006040518083038185875af1925050503d806000811461412a576040519150601f19603f3d011682016040523d82523d6000602084013e61412f565b606091505b50915091506141408783838761414b565b979650505050505050565b606083156141ba5782516000036141b3576001600160a01b0385163b6141b35760405162461bcd60e51b815260206004820152601d60248201527f416464726573733a2063616c6c20746f206e6f6e2d636f6e747261637400000060448201526064016107d8565b5081614051565b61405183838151156141cf5781518083602001fd5b8060405162461bcd60e51b81526004016107d891906146fa565b5080546000825560020290600052602060002090810190613e51919061422b565b5080546000825560040290600052602060002090810190613e51919061426d565b5b808211156142695780547fffffffffffffffffffffffff00000000000000000000000000000000000000001681556000600182015560020161422c565b5090565b5b808211156142695780547fffffffffffffffffffffffff000000000000000000000000000000000000000016815560006001820181905560028201819055600382015560040161426e565b60008083601f8401126142cb57600080fd5b50813567ffffffffffffffff8111156142e357600080fd5b6020830191508360208260061b85010111156142fe57600080fd5b9250929050565b60008083601f84011261431757600080fd5b50813567ffffffffffffffff81111561432f57600080fd5b6020830191508360208285010111156142fe57600080fd5b60008060008060006060868803121561435f57600080fd5b85359450602086013567ffffffffffffffff8082111561437e57600080fd5b61438a89838a016142b9565b909650945060408801359150808211156143a357600080fd5b506143b088828901614305565b969995985093965092949392505050565b6000806000604084860312156143d657600080fd5b83359250602084013567ffffffffffffffff8111156143f457600080fd5b61440086828701614305565b9497909650939450505050565b60006020828403121561441f57600080fd5b5035919050565b60005b83811015614441578181015183820152602001614429565b50506000910152565b60008151808452614462816020860160208601614426565b601f01601f19169290920160200192915050565b60208152815160208201526020820151604082015260006040830151608060608401526144a660a084018261444a565b90506060840151151560808401528091505092915050565b6020808252825182820181905260009190848201906040850190845b818110156144f6578351835292840192918401916001016144da565b50909695505050505050565b6001600160a01b0381168114613e5157600080fd5b7f4e487b7100000000000000000000000000000000000000000000000000000000600052604160045260246000fd5b6040516080810167ffffffffffffffff8111828210171561456957614569614517565b60405290565b604051601f8201601f1916810167ffffffffffffffff8111828210171561459857614598614517565b604052919050565b600067ffffffffffffffff8211156145ba576145ba614517565b50601f01601f191660200190565b600082601f8301126145d957600080fd5b81356145ec6145e7826145a0565b61456f565b81815284602083860101111561460157600080fd5b816020850160208301376000918101602001919091529392505050565b60008060006060848603121561463357600080fd5b833561463e81614502565b9250602084013567ffffffffffffffff8082111561465b57600080fd5b908501906080828803121561466f57600080fd5b614677614546565b823581526020830135602082015260408301358281111561469757600080fd5b6146a3898286016145c8565b6040830152506060830135828111156146bb57600080fd5b6146c7898286016145c8565b606083015250935060408601359150808211156146e357600080fd5b506146f0868287016145c8565b9150509250925092565b602081526000613286602083018461444a565b60008060006040848603121561472257600080fd5b83359250602084013567ffffffffffffffff81111561474057600080fd5b614400868287016142b9565b6000806040838503121561475f57600080fd5b82359150602083013561477181614502565b809150509250929050565b600081518084526020808501945080840160005b838110156147d557815180516001600160a01b031688528381015184890152604080820151908901526060908101519088015260809096019590820190600101614790565b509495945050505050565b602081526000613286602083018461477c565b6000806040838503121561480657600080fd5b823561481181614502565b9150602083013567ffffffffffffffff81111561482d57600080fd5b614839858286016145c8565b9150509250929050565b60006020828403121561485557600080fd5b813561328681614502565b60006020828403121561487257600080fd5b813567ffffffffffffffff81111561488957600080fd5b614051848285016145c8565b600080600080606085870312156148ab57600080fd5b8435935060208501359250604085013567ffffffffffffffff8111156148d057600080fd5b6148dc87828801614305565b95989497509550505050565b6040815260006148fb604083018561477c565b90508260208301529392505050565b6000602080835260a0830184518285015281850151604060808187015282825180855260c0880191508584019450600093505b8084101561496f57845180516001600160a01b031683528601518683015293850193600193909301929082019061493d565b50818801519450601f1987820301606088015261498c818661444a565b94505050505060608401516149a5608085018215159052565b509392505050565b6000602082840312156149bf57600080fd5b815161328681614502565b6000602082840312156149dc57600080fd5b5051919050565b805180151581146149f357600080fd5b919050565b600060208284031215614a0a57600080fd5b613286826149e3565b600060408284031215614a2557600080fd5b6040516040810181811067ffffffffffffffff82111715614a4857614a48614517565b6040528235614a5681614502565b81526020928301359281019290925250919050565b600181811c90821680614a7f57607f821691505b602082108103610e8b577f4e487b7100000000000000000000000000000000000000000000000000000000600052602260045260246000fd5b7f4e487b7100000000000000000000000000000000000000000000000000000000600052601160045260246000fd5b60006000198203614afa57614afa614ab8565b5060010190565b7f4e487b7100000000000000000000000000000000000000000000000000000000600052603260045260246000fd5b8135614b3b81614502565b6001600160a01b0381167fffffffffffffffffffffffff000000000000000000000000000000000000000083541617825550602082013560018201555050565b601f82111561403d57600081815260208120601f850160051c81016020861015614ba25750805b601f850160051c820191505b81811015614bc157828155600101614bae565b505050505050565b67ffffffffffffffff831115614be157614be1614517565b614bf583614bef8354614a6b565b83614b7b565b6000601f841160018114614c295760008515614c115750838201355b600019600387901b1c1916600186901b1783556134b3565b600083815260209020601f19861690835b82811015614c5a5786850135825560209485019460019092019101614c3a565b5086821015614c775760001960f88860031b161c19848701351681555b505060018560011b0183555050505050565b60008184825b85811015614cc9578135614ca281614502565b6001600160a01b031683526020828101359084015260409283019290910190600101614c8f565b509095945050505050565b818352818160208501375060006020828401015260006020601f19601f840116840101905092915050565b602081526000614051602083018486614cd4565b8183823760009101908152919050565b6000614d316145e7846145a0565b9050828152838383011115614d4557600080fd5b613286836020830184614426565b6000806040808486031215614d6757600080fd5b614d70846149e3565b925060208085015167ffffffffffffffff80821115614d8e57600080fd5b818701915087601f830112614da257600080fd5b815181811115614db457614db4614517565b8060051b614dc385820161456f565b918252838101850191858101908b841115614ddd57600080fd5b86860192505b83831015614e2d57825185811115614dfb5760008081fd5b8601603f81018d13614e0d5760008081fd5b614e1d8d898301518b8401614d23565b8352509186019190860190614de3565b80985050505050505050509250929050565b848152836020820152606060408201526000614e5f606083018486614cd4565b9695505050505050565b80820180821115611e7157611e71614ab8565b815167ffffffffffffffff811115614e9657614e96614517565b614eaa81614ea48454614a6b565b84614b7b565b602080601f831160018114614edf5760008415614ec75750858301515b600019600386901b1c1916600185901b178555614bc1565b600085815260208120601f198616915b82811015614f0e57888601518255948401946001909101908401614eef565b5085821015614f2c5787850151600019600388901b60f8161c191681555b5050505050600190811b01905550565b83815260008351614f54816020850160208801614426565b80830190508351614f6c816020840160208801614426565b0160200195945050505050565b81810381811115611e7157611e71614ab8565b6001600160a01b0383168152604060208201526000614051604083018461444a565b60008060408385031215614fc157600080fd5b614fca836149e3565b9150602083015167ffffffffffffffff811115614fe657600080fd5b8301601f81018513614ff757600080fd5b61483985825160208401614d23565b7f4e487b7100000000000000000000000000000000000000000000000000000000600052603160045260246000fd5b60008251615047818460208701614426565b919091019291505056fea2646970667358221220ccab5c4ea9c4b6b78bce07c541555e83fa1f24066bd27ffc179810383bdb823464736f6c63430008130033",
    "linkReferences": {}
  },
  "methodIdentifiers": {
    "BOUNTY_ISSUER_ROLE()": "7bfee048",
    "CLAIMANT_ROLE()": "8a867368",
    "VERIFIER_ROLE()": "e7705db6",
    "addBounty(uint256,uint256,bytes)": "bd769f79",
    "addClaim(uint256,(address,uint256)[],bytes)": "0d97d72c",
    "collectPaymentOrders()": "c0231ff6",
    "decoder(bytes)": "9e978575",
    "getBountyInformation(uint256)": "31be580e",
    "getClaimInformation(uint256)": "cb05296f",
    "grantModuleRole(bytes32,address)": "6c67e807",
    "identifier()": "7998a1c4",
    "init(address,(uint256,uint256,string,string),bytes)": "42dfe958",
    "init2(address,bytes)": "9bfdf766",
    "isExistingBountyId(uint256)": "be5a5745",
    "isExistingClaimId(uint256)": "e2114c8c",
    "listBountyIds()": "b5e8bc45",
    "listClaimIds()": "3cd6b5d1",
    "listClaimIdsForContributorAddress(address)": "9c16f525",
    "lockBounty(uint256)": "fa4dbd03",
    "orchestrator()": "b74795d9",
    "outstandingTokenAmount()": "a44a6bb2",
    "paymentOrders()": "75fa0b76",
    "revokeModuleRole(bytes32,address)": "bcb61920",
    "title()": "4a79d50c",
    "updateBounty(uint256,bytes)": "31de0bdb",
    "updateClaimContributors(uint256,(address,uint256)[])": "5beaeb8c",
    "updateClaimDetails(uint256,bytes)": "2d54a71c",
    "url()": "5600f04f",
    "verifyClaim(uint256,(address,uint256)[])": "bf1f9656",
    "version()": "54fd4d50"
  },
  "id": 110
}