{
  "abi": [
    {
      "inputs": [],
      "stateMutability": "nonpayable",
      "type": "constructor"
    },
    {
      "inputs": [],
      "name": "DependencyInjection__ModuleNotUsedInOrchestrator",
      "type": "error"
    },
    {
      "inputs": [
        {
          "internalType": "bytes32",
          "name": "role",
          "type": "bytes32"
        },
        {
          "internalType": "address",
          "name": "caller",
          "type": "address"
        }
      ],
      "name": "Orchestrator__CallerNotAuthorized",
      "type": "error"
    },
    {
      "inputs": [],
      "name": "Orchestrator__ExecuteTxFailed",
      "type": "error"
    },
    {
      "inputs": [
        {
          "internalType": "address",
          "name": "module",
          "type": "address"
        }
      ],
      "name": "Orchestrator__InvalidModuleType",
      "type": "error"
    },
    {
      "inputs": [],
      "name": "Orchestrator__ModuleManager__CallerNotAuthorized",
      "type": "error"
    },
    {
      "inputs": [],
      "name": "Orchestrator__ModuleManager__InvalidModuleAddress",
      "type": "error"
    },
    {
      "inputs": [],
      "name": "Orchestrator__ModuleManager__IsModule",
      "type": "error"
    },
    {
      "inputs": [],
      "name": "Orchestrator__ModuleManager__IsNotModule",
      "type": "error"
    },
    {
      "inputs": [],
      "name": "Orchestrator__ModuleManager__ModuleAmountOverLimits",
      "type": "error"
    },
    {
      "inputs": [],
      "name": "Orchestrator__ModuleManager__ModulesNotConsecutive",
      "type": "error"
    },
    {
      "inputs": [],
      "name": "Orchestrator__ModuleManager__OnlyCallableByModule",
      "type": "error"
    },
    {
      "anonymous": false,
      "inputs": [
        {
          "indexed": true,
          "internalType": "address",
          "name": "_address",
          "type": "address"
        }
      ],
      "name": "AuthorizerUpdated",
      "type": "event"
    },
    {
      "anonymous": false,
      "inputs": [
        {
          "indexed": true,
          "internalType": "address",
          "name": "_address",
          "type": "address"
        }
      ],
      "name": "FundingManagerUpdated",
      "type": "event"
    },
    {
      "anonymous": false,
      "inputs": [
        {
          "indexed": false,
          "internalType": "uint8",
          "name": "version",
          "type": "uint8"
        }
      ],
      "name": "Initialized",
      "type": "event"
    },
    {
      "anonymous": false,
      "inputs": [
        {
          "indexed": true,
          "internalType": "address",
          "name": "module",
          "type": "address"
        }
      ],
      "name": "ModuleAdded",
      "type": "event"
    },
    {
      "anonymous": false,
      "inputs": [
        {
          "indexed": true,
          "internalType": "address",
          "name": "module",
          "type": "address"
        }
      ],
      "name": "ModuleRemoved",
      "type": "event"
    },
    {
      "anonymous": false,
      "inputs": [
        {
          "indexed": true,
          "internalType": "address",
          "name": "_address",
          "type": "address"
        }
      ],
      "name": "PaymentProcessorUpdated",
      "type": "event"
    },
    {
      "inputs": [
        {
          "internalType": "address",
          "name": "module",
          "type": "address"
        }
      ],
      "name": "addModule",
      "outputs": [],
      "stateMutability": "nonpayable",
      "type": "function"
    },
    {
      "inputs": [],
      "name": "authorizer",
      "outputs": [
        {
          "internalType": "contract IAuthorizer",
          "name": "",
          "type": "address"
        }
      ],
      "stateMutability": "view",
      "type": "function"
    },
    {
      "inputs": [
        {
          "internalType": "address",
          "name": "target",
          "type": "address"
        },
        {
          "internalType": "bytes",
          "name": "data",
          "type": "bytes"
        }
      ],
      "name": "executeTx",
      "outputs": [
        {
          "internalType": "bytes",
          "name": "",
          "type": "bytes"
        }
      ],
      "stateMutability": "nonpayable",
      "type": "function"
    },
    {
      "inputs": [
        {
          "internalType": "address",
          "name": "to",
          "type": "address"
        },
        {
          "internalType": "bytes",
          "name": "data",
          "type": "bytes"
        }
      ],
      "name": "executeTxFromModule",
      "outputs": [
        {
          "internalType": "bool",
          "name": "",
          "type": "bool"
        },
        {
          "internalType": "bytes",
          "name": "",
          "type": "bytes"
        }
      ],
      "stateMutability": "nonpayable",
      "type": "function"
    },
    {
      "inputs": [
        {
          "internalType": "string",
          "name": "moduleName",
          "type": "string"
        }
      ],
      "name": "findModuleAddressInOrchestrator",
      "outputs": [
        {
          "internalType": "address",
          "name": "",
          "type": "address"
        }
      ],
      "stateMutability": "view",
      "type": "function"
    },
    {
      "inputs": [],
      "name": "fundingManager",
      "outputs": [
        {
          "internalType": "contract IFundingManager",
          "name": "",
          "type": "address"
        }
      ],
      "stateMutability": "view",
      "type": "function"
    },
    {
      "inputs": [
        {
          "internalType": "uint256",
          "name": "orchestratorId_",
          "type": "uint256"
        },
        {
          "internalType": "address[]",
          "name": "modules",
          "type": "address[]"
        },
        {
          "internalType": "contract IFundingManager",
          "name": "fundingManager_",
          "type": "address"
        },
        {
          "internalType": "contract IAuthorizer",
          "name": "authorizer_",
          "type": "address"
        },
        {
          "internalType": "contract IPaymentProcessor",
          "name": "paymentProcessor_",
          "type": "address"
        }
      ],
      "name": "init",
      "outputs": [],
      "stateMutability": "nonpayable",
      "type": "function"
    },
    {
      "inputs": [
        {
          "internalType": "address",
          "name": "module",
          "type": "address"
        }
      ],
      "name": "isModule",
      "outputs": [
        {
          "internalType": "bool",
          "name": "",
          "type": "bool"
        }
      ],
      "stateMutability": "view",
      "type": "function"
    },
    {
      "inputs": [],
      "name": "listModules",
      "outputs": [
        {
          "internalType": "address[]",
          "name": "",
          "type": "address[]"
        }
      ],
      "stateMutability": "view",
      "type": "function"
    },
    {
      "inputs": [],
      "name": "modulesSize",
      "outputs": [
        {
          "internalType": "uint8",
          "name": "",
          "type": "uint8"
        }
      ],
      "stateMutability": "view",
      "type": "function"
    },
    {
      "inputs": [],
      "name": "orchestratorId",
      "outputs": [
        {
          "internalType": "uint256",
          "name": "",
          "type": "uint256"
        }
      ],
      "stateMutability": "view",
      "type": "function"
    },
    {
      "inputs": [],
      "name": "paymentProcessor",
      "outputs": [
        {
          "internalType": "contract IPaymentProcessor",
          "name": "",
          "type": "address"
        }
      ],
      "stateMutability": "view",
      "type": "function"
    },
    {
      "inputs": [
        {
          "internalType": "address",
          "name": "module",
          "type": "address"
        }
      ],
      "name": "removeModule",
      "outputs": [],
      "stateMutability": "nonpayable",
      "type": "function"
    },
    {
      "inputs": [
        {
          "internalType": "contract IAuthorizer",
          "name": "authorizer_",
          "type": "address"
        }
      ],
      "name": "setAuthorizer",
      "outputs": [],
      "stateMutability": "nonpayable",
      "type": "function"
    },
    {
      "inputs": [
        {
          "internalType": "contract IFundingManager",
          "name": "fundingManager_",
          "type": "address"
        }
      ],
      "name": "setFundingManager",
      "outputs": [],
      "stateMutability": "nonpayable",
      "type": "function"
    },
    {
      "inputs": [
        {
          "internalType": "contract IPaymentProcessor",
          "name": "paymentProcessor_",
          "type": "address"
        }
      ],
      "name": "setPaymentProcessor",
      "outputs": [],
      "stateMutability": "nonpayable",
      "type": "function"
    },
    {
      "inputs": [
        {
          "internalType": "address",
          "name": "authModule",
          "type": "address"
        }
      ],
      "name": "verifyAddressIsAuthorizerModule",
      "outputs": [
        {
          "internalType": "bool",
          "name": "",
          "type": "bool"
        }
      ],
      "stateMutability": "view",
      "type": "function"
    },
    {
      "inputs": [
        {
          "internalType": "address",
          "name": "fundingManagerAddress",
          "type": "address"
        }
      ],
      "name": "verifyAddressIsFundingManager",
      "outputs": [
        {
          "internalType": "bool",
          "name": "",
          "type": "bool"
        }
      ],
      "stateMutability": "view",
      "type": "function"
    },
    {
      "inputs": [
        {
          "internalType": "address",
          "name": "paymentProcessorAddress",
          "type": "address"
        }
      ],
      "name": "verifyAddressIsPaymentProcessor",
      "outputs": [
        {
          "internalType": "bool",
          "name": "",
          "type": "bool"
        }
      ],
      "stateMutability": "view",
      "type": "function"
    },
    {
      "inputs": [
        {
          "internalType": "address",
          "name": "recurringPaymentManager",
          "type": "address"
        }
      ],
      "name": "verifyAddressIsRecurringPaymentManager",
      "outputs": [
        {
          "internalType": "bool",
          "name": "",
          "type": "bool"
        }
      ],
      "stateMutability": "view",
      "type": "function"
    },
    {
      "inputs": [],
      "name": "version",
      "outputs": [
        {
          "internalType": "string",
          "name": "",
          "type": "string"
        }
      ],
      "stateMutability": "pure",
      "type": "function"
    }
  ],
  "bytecode": {
    "object": "0x608060405234801561001057600080fd5b5061001961001e565b6100de565b600054610100900460ff161561008a5760405162461bcd60e51b815260206004820152602760248201527f496e697469616c697a61626c653a20636f6e747261637420697320696e697469604482015266616c697a696e6760c81b606482015260840160405180910390fd5b60005460ff90811610156100dc576000805460ff191660ff9081179091556040519081527f7f26b83ff96e1f2b6a682f133852f6798a09c465da95921460cefb38474024989060200160405180910390a15b565b611d6d806100ed6000396000f3fe608060405234801561001057600080fd5b50600436106101775760003560e01c806354fd4d50116100d8578063a06324611161008c578063d373cb5511610066578063d373cb551461034c578063f1c6bdf81461035f578063fac5e9811461037257600080fd5b8063a063246114610313578063aa0992aa14610326578063d09edf311461033957600080fd5b8063736963a7116100bd578063736963a7146102e95780637b36889c146102225780638ada5bab1461030057600080fd5b806354fd4d5014610286578063685dc6b1146102c857600080fd5b80632e3a22d31161012f5780633878f68a116101145780633878f68a1461022257806342f6e389146102455780634cfa64871461027157600080fd5b80632e3a22d3146101fa578063333dc5271461020f57600080fd5b8063088b0d7511610160578063088b0d75146101c157806308c101b1146101d45780631ed86f19146101e757600080fd5b806304baed9e1461017c578063058a628f146101ac575b600080fd5b60375461018f906001600160a01b031681565b6040516001600160a01b0390911681526020015b60405180910390f35b6101bf6101ba36600461184e565b610385565b005b6101bf6101cf36600461184e565b6105c8565b61018f6101e2366004611872565b610785565b6101bf6101f536600461184e565b6107dd565b60335460405160ff90911681526020016101a3565b6101bf61021d36600461184e565b61087a565b61023561023036600461184e565b610a37565b60405190151581526020016101a3565b61023561025336600461184e565b6001600160a01b031660009081526034602052604090205460ff1690565b610279610aae565b6040516101a391906118e4565b60408051808201909152600181527f310000000000000000000000000000000000000000000000000000000000000060208201525b6040516101a39190611981565b6102db6102d6366004611a1c565b610b10565b6040516101a3929190611aaf565b6102f260365481565b6040519081526020016101a3565b61023561030e36600461184e565b610bc1565b6101bf61032136600461184e565b610c1e565b6101bf610334366004611ad2565b610cbf565b60385461018f906001600160a01b031681565b61023561035a36600461184e565b610eb0565b60395461018f906001600160a01b031681565b6102bb610380366004611a1c565b610f0d565b603854604080517f55ff58d400000000000000000000000000000000000000000000000000000000815290516000926001600160a01b0316916355ff58d49160048083019260209291908290030181865afa1580156103e8573d6000803e3d6000fd5b505050506040513d601f19601f8201168201806040525081019061040c9190611b82565b6038549091506001600160a01b03166391d1485482336040517fffffffff0000000000000000000000000000000000000000000000000000000060e085901b16815260048101929092526001600160a01b03166024820152604401602060405180830381865afa158015610484573d6000803e3d6000fd5b505050506040513d601f19601f820116820180604052508101906104a89190611b9b565b6104f85780335b6040517f25f3b92700000000000000000000000000000000000000000000000000000000815260048101929092526001600160a01b031660248201526044015b60405180910390fd5b61050182610bc1565b156105875761050f826107dd565b603854610524906001600160a01b0316610c1e565b603880547fffffffffffffffffffffffff0000000000000000000000000000000000000000166001600160a01b0384169081179091556040517ff3f625a7d9e02778afdfdf1bea978d6565840d408866c70f5d25aadf77021d7090600090a25050565b6040517f0f25fdb60000000000000000000000000000000000000000000000000000000081526001600160a01b03831660048201526024016104ef565b5050565b603854604080517f55ff58d400000000000000000000000000000000000000000000000000000000815290516000926001600160a01b0316916355ff58d49160048083019260209291908290030181865afa15801561062b573d6000803e3d6000fd5b505050506040513d601f19601f8201168201806040525081019061064f9190611b82565b6038549091506001600160a01b03166391d1485482336040517fffffffff0000000000000000000000000000000000000000000000000000000060e085901b16815260048101929092526001600160a01b03166024820152604401602060405180830381865afa1580156106c7573d6000803e3d6000fd5b505050506040513d601f19601f820116820180604052508101906106eb9190611b9b565b6106f65780336104af565b6106ff82610a37565b156105875761070d826107dd565b603954610722906001600160a01b0316610c1e565b603980547fffffffffffffffffffffffff0000000000000000000000000000000000000000166001600160a01b0384169081179091556040517fae8716ba090b1cdfccf3851704c6dc4610f3be4f2f6badf912e74315e5280db490600090a25050565b600080600061079485856110db565b9150915060001982036107d3576040517f8b08febc00000000000000000000000000000000000000000000000000000000815260040160405180910390fd5b9150505b92915050565b6107e63361121c565b61081c576040517fbc43719a00000000000000000000000000000000000000000000000000000000815260040160405180910390fd5b603354608011610858576040517f4b8afdce00000000000000000000000000000000000000000000000000000000815260040160405180910390fd5b8061086281611332565b8161086c81611388565b610875836113dd565b505050565b603854604080517f55ff58d400000000000000000000000000000000000000000000000000000000815290516000926001600160a01b0316916355ff58d49160048083019260209291908290030181865afa1580156108dd573d6000803e3d6000fd5b505050506040513d601f19601f820116820180604052508101906109019190611b82565b6038549091506001600160a01b03166391d1485482336040517fffffffff0000000000000000000000000000000000000000000000000000000060e085901b16815260048101929092526001600160a01b03166024820152604401602060405180830381865afa158015610979573d6000803e3d6000fd5b505050506040513d601f19601f8201168201806040525081019061099d9190611b9b565b6109a85780336104af565b6109b182610a37565b15610587576109bf826107dd565b6037546109d4906001600160a01b0316610c1e565b603780547fffffffffffffffffffffffff0000000000000000000000000000000000000000166001600160a01b0384169081179091556040517f224dfb9d0227c04cf6e5b57d4b0594d2962f550c547f4bf5e2578e09d6aa67ed90600090a25050565b600080829050806001600160a01b031663fc0c546a6040518163ffffffff1660e01b8152600401602060405180830381865afa925050508015610a97575060408051601f3d908101601f19168201909252610a9491810190611bbd565b60015b610aa45750600092915050565b5060019392505050565b60606033805480602002602001604051908101604052809291908181526020018280548015610b0657602002820191906000526020600020905b81546001600160a01b03168152600190910190602001808311610ae8575b5050505050905090565b60006060610b1d33610253565b610b53576040517fd527370800000000000000000000000000000000000000000000000000000000815260040160405180910390fd5b60006060856001600160a01b031685604051610b6f9190611bda565b6000604051808303816000865af19150503d8060008114610bac576040519150601f19603f3d011682016040523d82523d6000602084013e610bb1565b606091505b50909450925050505b9250929050565b600080829050806001600160a01b03166355ff58d46040518163ffffffff1660e01b8152600401602060405180830381865afa925050508015610a97575060408051601f3d908101601f19168201909252610a9491810190611b82565b610c273361121c565b610c5d576040517fbc43719a00000000000000000000000000000000000000000000000000000000815260040160405180910390fd5b80610c80816001600160a01b031660009081526034602052604090205460ff1690565b610cb6576040517ff944147c00000000000000000000000000000000000000000000000000000000815260040160405180910390fd5b6105c482611484565b600054610100900460ff1615808015610cdf5750600054600160ff909116105b80610cf95750303b158015610cf9575060005460ff166001145b610d85576040517f08c379a000000000000000000000000000000000000000000000000000000000815260206004820152602e60248201527f496e697469616c697a61626c653a20636f6e747261637420697320616c72656160448201527f647920696e697469616c697a656400000000000000000000000000000000000060648201526084016104ef565b6000805460ff191660011790558015610dc557600080547fffffffffffffffffffffffffffffffffffffffffffffffffffffffffffff00ff166101001790555b610dcf8686611655565b6036879055603780546001600160a01b038087167fffffffffffffffffffffffff000000000000000000000000000000000000000092831617909255603880548684169083161790556039805492851692909116919091179055610e3284610858565b610e3b83610858565b610e4482610858565b8015610ea757600080547fffffffffffffffffffffffffffffffffffffffffffffffffffffffffffff00ff169055604051600181527f7f26b83ff96e1f2b6a682f133852f6798a09c465da95921460cefb38474024989060200160405180910390a15b50505050505050565b600080829050806001600160a01b031663cfe8a73b6040518163ffffffff1660e01b8152600401602060405180830381865afa925050508015610a97575060408051601f3d908101601f19168201909252610a9491810190611b82565b60606000603860009054906101000a90046001600160a01b03166001600160a01b03166355ff58d46040518163ffffffff1660e01b8152600401602060405180830381865afa158015610f64573d6000803e3d6000fd5b505050506040513d601f19601f82011682018060405250810190610f889190611b82565b6038549091506001600160a01b03166391d1485482336040517fffffffff0000000000000000000000000000000000000000000000000000000060e085901b16815260048101929092526001600160a01b03166024820152604401602060405180830381865afa158015611000573d6000803e3d6000fd5b505050506040513d601f19601f820116820180604052508101906110249190611b9b565b61102f5780336104af565b60006060856001600160a01b03168560405161104b9190611bda565b6000604051808303816000865af19150503d8060008114611088576040519150601f19603f3d011682016040523d82523d6000602084013e61108d565b606091505b50909250905081156110a25792506110d49050565b6040517f74373f0f00000000000000000000000000000000000000000000000000000000815260040160405180910390fd5b5092915050565b60008060006110e8610aae565b8051909150606060005b8281101561120a5783818151811061110c5761110c611bf6565b60200260200101516001600160a01b0316634a79d50c6040518163ffffffff1660e01b8152600401600060405180830381865afa158015611151573d6000803e3d6000fd5b505050506040513d6000823e601f3d908101601f191682016040526111799190810190611c25565b8051909250879003611202578787604051602001611198929190611c9c565b60405160208183030381529060405280519060200120826040516020016111bf9190611bda565b604051602081830303815290604052805190602001200361120257808482815181106111ed576111ed611bf6565b60200260200101519550955050505050610bba565b6001016110f2565b50600019976000975095505050505050565b603854604080517f55ff58d400000000000000000000000000000000000000000000000000000000815290516000926001600160a01b0316916391d148549183916355ff58d49160048083019260209291908290030181865afa158015611287573d6000803e3d6000fd5b505050506040513d601f19601f820116820180604052508101906112ab9190611b82565b6040517fffffffff0000000000000000000000000000000000000000000000000000000060e084901b16815260048101919091526001600160a01b0385166024820152604401602060405180830381865afa15801561130e573d6000803e3d6000fd5b505050506040513d601f19601f820116820180604052508101906107d79190611b9b565b6001600160a01b03811660009081526034602052604090205460ff1615611385576040517f4ee6adbb00000000000000000000000000000000000000000000000000000000815260040160405180910390fd5b50565b6001600160a01b03811615806113a657506001600160a01b03811630145b15611385576040517f9004b22700000000000000000000000000000000000000000000000000000000815260040160405180910390fd5b6033805460018082019092557f82a75bdeeae8604d839476ae9efd8b0e15aa447e21bfd7f41283bb54e22c9a820180547fffffffffffffffffffffffff0000000000000000000000000000000000000000166001600160a01b038416908117909155600081815260346020526040808220805460ff1916909417909355915190917fead6a006345da1073a106d5f32372d2d2204f46cb0b4bca8f5ebafcbbed12b8a91a250565b600060338054806020026020016040519081016040528092919081815260200182805480156114dc57602002820191906000526020600020905b81546001600160a01b031681526001909101906020018083116114be575b5050835193945060001993925060009150505b8181101561154357846001600160a01b031684828151811061151357611513611bf6565b60200260200101516001600160a01b03160361153157809250611543565b8061153b81611cdb565b9150506114ef565b506033611551600183611cf5565b8154811061156157611561611bf6565b600091825260209091200154603380546001600160a01b03909216918490811061158d5761158d611bf6565b9060005260206000200160006101000a8154816001600160a01b0302191690836001600160a01b0316021790555060338054806115cc576115cc611d08565b60008281526020808220830160001990810180547fffffffffffffffffffffffff00000000000000000000000000000000000000001690559092019092556001600160a01b03861680835260349091526040808320805460ff191690555190917f0a1ee69f55c33d8467c69ca59ce2007a737a88603d75392972520bf67cb513b891a250505050565b600054610100900460ff166116ec576040517f08c379a000000000000000000000000000000000000000000000000000000000815260206004820152602b60248201527f496e697469616c697a61626c653a20636f6e7472616374206973206e6f74206960448201527f6e697469616c697a696e6700000000000000000000000000000000000000000060648201526084016104ef565b6116f4611790565b60008161170360036080611cf5565b81111561173c576040517f4b8afdce00000000000000000000000000000000000000000000000000000000815260040160405180910390fd5b60005b818110156117895784848281811061175957611759611bf6565b905060200201602081019061176e919061184e565b925061177983610858565b61178281611cdb565b905061173f565b5050505050565b600054610100900460ff16611827576040517f08c379a000000000000000000000000000000000000000000000000000000000815260206004820152602b60248201527f496e697469616c697a61626c653a20636f6e7472616374206973206e6f74206960448201527f6e697469616c697a696e6700000000000000000000000000000000000000000060648201526084016104ef565b565b6001600160a01b038116811461138557600080fd5b803561184981611829565b919050565b60006020828403121561186057600080fd5b813561186b81611829565b9392505050565b6000806020838503121561188557600080fd5b823567ffffffffffffffff8082111561189d57600080fd5b818501915085601f8301126118b157600080fd5b8135818111156118c057600080fd5b8660208285010111156118d257600080fd5b60209290920196919550909350505050565b6020808252825182820181905260009190848201906040850190845b818110156119255783516001600160a01b031683529284019291840191600101611900565b50909695505050505050565b60005b8381101561194c578181015183820152602001611934565b50506000910152565b6000815180845261196d816020860160208601611931565b601f01601f19169290920160200192915050565b60208152600061186b6020830184611955565b7f4e487b7100000000000000000000000000000000000000000000000000000000600052604160045260246000fd5b604051601f8201601f1916810167ffffffffffffffff811182821017156119ec576119ec611994565b604052919050565b600067ffffffffffffffff821115611a0e57611a0e611994565b50601f01601f191660200190565b60008060408385031215611a2f57600080fd5b8235611a3a81611829565b9150602083013567ffffffffffffffff811115611a5657600080fd5b8301601f81018513611a6757600080fd5b8035611a7a611a75826119f4565b6119c3565b818152866020838501011115611a8f57600080fd5b816020840160208301376000602083830101528093505050509250929050565b8215158152604060208201526000611aca6040830184611955565b949350505050565b60008060008060008060a08789031215611aeb57600080fd5b86359550602087013567ffffffffffffffff80821115611b0a57600080fd5b818901915089601f830112611b1e57600080fd5b813581811115611b2d57600080fd5b8a60208260051b8501011115611b4257600080fd5b602083019750809650505050611b5a6040880161183e565b9250611b686060880161183e565b9150611b766080880161183e565b90509295509295509295565b600060208284031215611b9457600080fd5b5051919050565b600060208284031215611bad57600080fd5b8151801515811461186b57600080fd5b600060208284031215611bcf57600080fd5b815161186b81611829565b60008251611bec818460208701611931565b9190910192915050565b7f4e487b7100000000000000000000000000000000000000000000000000000000600052603260045260246000fd5b600060208284031215611c3757600080fd5b815167ffffffffffffffff811115611c4e57600080fd5b8201601f81018413611c5f57600080fd5b8051611c6d611a75826119f4565b818152856020838501011115611c8257600080fd5b611c93826020830160208601611931565b95945050505050565b8183823760009101908152919050565b7f4e487b7100000000000000000000000000000000000000000000000000000000600052601160045260246000fd5b60006000198203611cee57611cee611cac565b5060010190565b818103818111156107d7576107d7611cac565b7f4e487b7100000000000000000000000000000000000000000000000000000000600052603160045260246000fdfea2646970667358221220826d8039fb2149c1d9d2d46a2c9ea675528d5fa105f440429462c0e5b074b15f64736f6c63430008130033",
    "linkReferences": {}
  },
  "methodIdentifiers": {
    "addModule(address)": "1ed86f19",
    "authorizer()": "d09edf31",
    "executeTx(address,bytes)": "fac5e981",
    "executeTxFromModule(address,bytes)": "685dc6b1",
    "findModuleAddressInOrchestrator(string)": "08c101b1",
    "fundingManager()": "04baed9e",
    "init(uint256,address[],address,address,address)": "aa0992aa",
    "isModule(address)": "42f6e389",
    "listModules()": "4cfa6487",
    "modulesSize()": "2e3a22d3",
    "orchestratorId()": "736963a7",
    "paymentProcessor()": "f1c6bdf8",
    "removeModule(address)": "a0632461",
    "setAuthorizer(address)": "058a628f",
    "setFundingManager(address)": "333dc527",
    "setPaymentProcessor(address)": "088b0d75",
    "verifyAddressIsAuthorizerModule(address)": "8ada5bab",
    "verifyAddressIsFundingManager(address)": "3878f68a",
    "verifyAddressIsPaymentProcessor(address)": "7b36889c",
    "verifyAddressIsRecurringPaymentManager(address)": "d373cb55",
    "version()": "54fd4d50"
  },
  "id": 125
}