{
  "abi": [
    {
      "inputs": [],
      "name": "InvalidAmount",
      "type": "error"
    },
    {
      "inputs": [],
      "name": "InvalidRecipient",
      "type": "error"
    },
    {
      "inputs": [],
      "name": "MaxSupplyReached",
      "type": "error"
    },
    {
      "inputs": [
        {
          "internalType": "string",
          "name": "funcSig",
          "type": "string"
        }
      ],
      "name": "Module_OrchestratorCallbackFailed",
      "type": "error"
    },
    {
      "inputs": [
        {
          "internalType": "bytes32",
          "name": "role",
          "type": "bytes32"
        },
        {
          "internalType": "address",
          "name": "caller",
          "type": "address"
        }
      ],
      "name": "Module__CallerNotAuthorized",
      "type": "error"
    },
    {
      "inputs": [],
      "name": "Module__CannotCallInit2Again",
      "type": "error"
    },
    {
      "inputs": [],
      "name": "Module__FundingManager__CannotSelfDeposit",
      "type": "error"
    },
    {
      "inputs": [],
      "name": "Module__FundingManager__DepositCapReached",
      "type": "error"
    },
    {
      "inputs": [],
      "name": "Module__FundingManager__InvalidAddress",
      "type": "error"
    },
    {
      "inputs": [],
      "name": "Module__InvalidMetadata",
      "type": "error"
    },
    {
      "inputs": [],
      "name": "Module__InvalidOrchestratorAddress",
      "type": "error"
    },
    {
      "inputs": [],
      "name": "Module__NoDependencyOrMalformedDependencyData",
      "type": "error"
    },
    {
      "inputs": [],
      "name": "Module__OnlyCallableByOrchestrator",
      "type": "error"
    },
    {
      "anonymous": false,
      "inputs": [
        {
          "indexed": true,
          "internalType": "address",
          "name": "owner",
          "type": "address"
        },
        {
          "indexed": true,
          "internalType": "address",
          "name": "spender",
          "type": "address"
        },
        {
          "indexed": false,
          "internalType": "uint256",
          "name": "value",
          "type": "uint256"
        }
      ],
      "name": "Approval",
      "type": "event"
    },
    {
      "anonymous": false,
      "inputs": [
        {
          "indexed": true,
          "internalType": "address",
          "name": "from",
          "type": "address"
        },
        {
          "indexed": true,
          "internalType": "address",
          "name": "to",
          "type": "address"
        },
        {
          "indexed": true,
          "internalType": "uint256",
          "name": "amount",
          "type": "uint256"
        }
      ],
      "name": "Deposit",
      "type": "event"
    },
    {
      "anonymous": false,
      "inputs": [
        {
          "indexed": false,
          "internalType": "uint8",
          "name": "version",
          "type": "uint8"
        }
      ],
      "name": "Initialized",
      "type": "event"
    },
    {
      "anonymous": false,
      "inputs": [
        {
          "indexed": true,
          "internalType": "uint256",
          "name": "epoch",
          "type": "uint256"
        },
        {
          "indexed": false,
          "internalType": "uint256",
          "name": "newScalar",
          "type": "uint256"
        }
      ],
      "name": "Rebase",
      "type": "event"
    },
    {
      "anonymous": false,
      "inputs": [
        {
          "indexed": true,
          "internalType": "address",
          "name": "from",
          "type": "address"
        },
        {
          "indexed": true,
          "internalType": "address",
          "name": "to",
          "type": "address"
        },
        {
          "indexed": false,
          "internalType": "uint256",
          "name": "value",
          "type": "uint256"
        }
      ],
      "name": "Transfer",
      "type": "event"
    },
    {
      "anonymous": false,
      "inputs": [
        {
          "indexed": true,
          "internalType": "address",
          "name": "to",
          "type": "address"
        },
        {
          "indexed": true,
          "internalType": "uint256",
          "name": "amount",
          "type": "uint256"
        }
      ],
      "name": "TransferOrchestratorToken",
      "type": "event"
    },
    {
      "anonymous": false,
      "inputs": [
        {
          "indexed": true,
          "internalType": "address",
          "name": "from",
          "type": "address"
        },
        {
          "indexed": true,
          "internalType": "address",
          "name": "to",
          "type": "address"
        },
        {
          "indexed": true,
          "internalType": "uint256",
          "name": "amount",
          "type": "uint256"
        }
      ],
      "name": "Withdrawal",
      "type": "event"
    },
    {
      "inputs": [],
      "name": "DOMAIN_SEPARATOR",
      "outputs": [
        {
          "internalType": "bytes32",
          "name": "",
          "type": "bytes32"
        }
      ],
      "stateMutability": "view",
      "type": "function"
    },
    {
      "inputs": [],
      "name": "EIP712_DOMAIN",
      "outputs": [
        {
          "internalType": "bytes32",
          "name": "",
          "type": "bytes32"
        }
      ],
      "stateMutability": "view",
      "type": "function"
    },
    {
      "inputs": [],
      "name": "EIP712_REVISION",
      "outputs": [
        {
          "internalType": "string",
          "name": "",
          "type": "string"
        }
      ],
      "stateMutability": "view",
      "type": "function"
    },
    {
      "inputs": [],
      "name": "PERMIT_TYPEHASH",
      "outputs": [
        {
          "internalType": "bytes32",
          "name": "",
          "type": "bytes32"
        }
      ],
      "stateMutability": "view",
      "type": "function"
    },
    {
      "inputs": [
        {
          "internalType": "address",
          "name": "owner_",
          "type": "address"
        },
        {
          "internalType": "address",
          "name": "spender",
          "type": "address"
        }
      ],
      "name": "allowance",
      "outputs": [
        {
          "internalType": "uint256",
          "name": "",
          "type": "uint256"
        }
      ],
      "stateMutability": "view",
      "type": "function"
    },
    {
      "inputs": [
        {
          "internalType": "address",
          "name": "spender",
          "type": "address"
        },
        {
          "internalType": "uint256",
          "name": "tokens",
          "type": "uint256"
        }
      ],
      "name": "approve",
      "outputs": [
        {
          "internalType": "bool",
          "name": "",
          "type": "bool"
        }
      ],
      "stateMutability": "nonpayable",
      "type": "function"
    },
    {
      "inputs": [
        {
          "internalType": "address",
          "name": "who",
          "type": "address"
        }
      ],
      "name": "balanceOf",
      "outputs": [
        {
          "internalType": "uint256",
          "name": "",
          "type": "uint256"
        }
      ],
      "stateMutability": "view",
      "type": "function"
    },
    {
      "inputs": [],
      "name": "decimals",
      "outputs": [
        {
          "internalType": "uint8",
          "name": "",
          "type": "uint8"
        }
      ],
      "stateMutability": "view",
      "type": "function"
    },
    {
      "inputs": [
        {
          "internalType": "bytes",
          "name": "data",
          "type": "bytes"
        }
      ],
      "name": "decoder",
      "outputs": [
        {
          "internalType": "bool",
          "name": "requirement",
          "type": "bool"
        }
      ],
      "stateMutability": "pure",
      "type": "function"
    },
    {
      "inputs": [
        {
          "internalType": "address",
          "name": "spender",
          "type": "address"
        },
        {
          "internalType": "uint256",
          "name": "tokens",
          "type": "uint256"
        }
      ],
      "name": "decreaseAllowance",
      "outputs": [
        {
          "internalType": "bool",
          "name": "",
          "type": "bool"
        }
      ],
      "stateMutability": "nonpayable",
      "type": "function"
    },
    {
      "inputs": [
        {
          "internalType": "uint256",
          "name": "amount",
          "type": "uint256"
        }
      ],
      "name": "deposit",
      "outputs": [],
      "stateMutability": "nonpayable",
      "type": "function"
    },
    {
      "inputs": [
        {
          "internalType": "address",
          "name": "to",
          "type": "address"
        },
        {
          "internalType": "uint256",
          "name": "amount",
          "type": "uint256"
        }
      ],
      "name": "depositFor",
      "outputs": [],
      "stateMutability": "nonpayable",
      "type": "function"
    },
    {
      "inputs": [
        {
          "internalType": "bytes32",
          "name": "role",
          "type": "bytes32"
        },
        {
          "internalType": "address",
          "name": "addr",
          "type": "address"
        }
      ],
      "name": "grantModuleRole",
      "outputs": [],
      "stateMutability": "nonpayable",
      "type": "function"
    },
    {
      "inputs": [],
      "name": "identifier",
      "outputs": [
        {
          "internalType": "bytes32",
          "name": "",
          "type": "bytes32"
        }
      ],
      "stateMutability": "view",
      "type": "function"
    },
    {
      "inputs": [
        {
          "internalType": "address",
          "name": "spender",
          "type": "address"
        },
        {
          "internalType": "uint256",
          "name": "tokens",
          "type": "uint256"
        }
      ],
      "name": "increaseAllowance",
      "outputs": [
        {
          "internalType": "bool",
          "name": "",
          "type": "bool"
        }
      ],
      "stateMutability": "nonpayable",
      "type": "function"
    },
    {
      "inputs": [
        {
          "internalType": "contract IOrchestrator",
          "name": "orchestrator_",
          "type": "address"
        },
        {
          "components": [
            {
              "internalType": "uint256",
              "name": "majorVersion",
              "type": "uint256"
            },
            {
              "internalType": "uint256",
              "name": "minorVersion",
              "type": "uint256"
            },
            {
              "internalType": "string",
              "name": "url",
              "type": "string"
            },
            {
              "internalType": "string",
              "name": "title",
              "type": "string"
            }
          ],
          "internalType": "struct IModule.Metadata",
          "name": "metadata",
          "type": "tuple"
        },
        {
          "internalType": "bytes",
          "name": "configData",
          "type": "bytes"
        }
      ],
      "name": "init",
      "outputs": [],
      "stateMutability": "nonpayable",
      "type": "function"
    },
    {
      "inputs": [
        {
          "internalType": "contract IOrchestrator",
          "name": "orchestrator_",
          "type": "address"
        },
        {
          "internalType": "bytes",
          "name": "dependencyData",
          "type": "bytes"
        }
      ],
      "name": "init2",
      "outputs": [],
      "stateMutability": "nonpayable",
      "type": "function"
    },
    {
      "inputs": [],
      "name": "name",
      "outputs": [
        {
          "internalType": "string",
          "name": "",
          "type": "string"
        }
      ],
      "stateMutability": "view",
      "type": "function"
    },
    {
      "inputs": [
        {
          "internalType": "address",
          "name": "who",
          "type": "address"
        }
      ],
      "name": "nonces",
      "outputs": [
        {
          "internalType": "uint256",
          "name": "",
          "type": "uint256"
        }
      ],
      "stateMutability": "view",
      "type": "function"
    },
    {
      "inputs": [],
      "name": "orchestrator",
      "outputs": [
        {
          "internalType": "contract IOrchestrator",
          "name": "",
          "type": "address"
        }
      ],
      "stateMutability": "view",
      "type": "function"
    },
    {
      "inputs": [
        {
          "internalType": "address",
          "name": "owner",
          "type": "address"
        },
        {
          "internalType": "address",
          "name": "spender",
          "type": "address"
        },
        {
          "internalType": "uint256",
          "name": "value",
          "type": "uint256"
        },
        {
          "internalType": "uint256",
          "name": "deadline",
          "type": "uint256"
        },
        {
          "internalType": "uint8",
          "name": "v",
          "type": "uint8"
        },
        {
          "internalType": "bytes32",
          "name": "r",
          "type": "bytes32"
        },
        {
          "internalType": "bytes32",
          "name": "s",
          "type": "bytes32"
        }
      ],
      "name": "permit",
      "outputs": [],
      "stateMutability": "nonpayable",
      "type": "function"
    },
    {
      "inputs": [],
      "name": "rebase",
      "outputs": [],
      "stateMutability": "nonpayable",
      "type": "function"
    },
    {
      "inputs": [
        {
          "internalType": "bytes32",
          "name": "role",
          "type": "bytes32"
        },
        {
          "internalType": "address",
          "name": "addr",
          "type": "address"
        }
      ],
      "name": "revokeModuleRole",
      "outputs": [],
      "stateMutability": "nonpayable",
      "type": "function"
    },
    {
      "inputs": [
        {
          "internalType": "address",
          "name": "who",
          "type": "address"
        }
      ],
      "name": "scaledBalanceOf",
      "outputs": [
        {
          "internalType": "uint256",
          "name": "",
          "type": "uint256"
        }
      ],
      "stateMutability": "view",
      "type": "function"
    },
    {
      "inputs": [],
      "name": "scaledTotalSupply",
      "outputs": [
        {
          "internalType": "uint256",
          "name": "",
          "type": "uint256"
        }
      ],
      "stateMutability": "view",
      "type": "function"
    },
    {
      "inputs": [],
      "name": "symbol",
      "outputs": [
        {
          "internalType": "string",
          "name": "",
          "type": "string"
        }
      ],
      "stateMutability": "view",
      "type": "function"
    },
    {
      "inputs": [],
      "name": "title",
      "outputs": [
        {
          "internalType": "string",
          "name": "",
          "type": "string"
        }
      ],
      "stateMutability": "view",
      "type": "function"
    },
    {
      "inputs": [],
      "name": "token",
      "outputs": [
        {
          "internalType": "contract IERC20",
          "name": "",
          "type": "address"
        }
      ],
      "stateMutability": "view",
      "type": "function"
    },
    {
      "inputs": [],
      "name": "totalSupply",
      "outputs": [
        {
          "internalType": "uint256",
          "name": "",
          "type": "uint256"
        }
      ],
      "stateMutability": "view",
      "type": "function"
    },
    {
      "inputs": [
        {
          "internalType": "address",
          "name": "to",
          "type": "address"
        },
        {
          "internalType": "uint256",
          "name": "tokens",
          "type": "uint256"
        }
      ],
      "name": "transfer",
      "outputs": [
        {
          "internalType": "bool",
          "name": "",
          "type": "bool"
        }
      ],
      "stateMutability": "nonpayable",
      "type": "function"
    },
    {
      "inputs": [
        {
          "internalType": "address",
          "name": "to",
          "type": "address"
        }
      ],
      "name": "transferAll",
      "outputs": [
        {
          "internalType": "bool",
          "name": "",
          "type": "bool"
        }
      ],
      "stateMutability": "nonpayable",
      "type": "function"
    },
    {
      "inputs": [
        {
          "internalType": "address",
          "name": "from",
          "type": "address"
        },
        {
          "internalType": "address",
          "name": "to",
          "type": "address"
        }
      ],
      "name": "transferAllFrom",
      "outputs": [
        {
          "internalType": "bool",
          "name": "",
          "type": "bool"
        }
      ],
      "stateMutability": "nonpayable",
      "type": "function"
    },
    {
      "inputs": [
        {
          "internalType": "address",
          "name": "from",
          "type": "address"
        },
        {
          "internalType": "address",
          "name": "to",
          "type": "address"
        },
        {
          "internalType": "uint256",
          "name": "tokens",
          "type": "uint256"
        }
      ],
      "name": "transferFrom",
      "outputs": [
        {
          "internalType": "bool",
          "name": "",
          "type": "bool"
        }
      ],
      "stateMutability": "nonpayable",
      "type": "function"
    },
    {
      "inputs": [
        {
          "internalType": "address",
          "name": "to",
          "type": "address"
        },
        {
          "internalType": "uint256",
          "name": "amount",
          "type": "uint256"
        }
      ],
      "name": "transferOrchestratorToken",
      "outputs": [],
      "stateMutability": "nonpayable",
      "type": "function"
    },
    {
      "inputs": [],
      "name": "url",
      "outputs": [
        {
          "internalType": "string",
          "name": "",
          "type": "string"
        }
      ],
      "stateMutability": "view",
      "type": "function"
    },
    {
      "inputs": [],
      "name": "version",
      "outputs": [
        {
          "internalType": "uint256",
          "name": "",
          "type": "uint256"
        },
        {
          "internalType": "uint256",
          "name": "",
          "type": "uint256"
        }
      ],
      "stateMutability": "view",
      "type": "function"
    },
    {
      "inputs": [
        {
          "internalType": "uint256",
          "name": "amount",
          "type": "uint256"
        }
      ],
      "name": "withdraw",
      "outputs": [],
      "stateMutability": "nonpayable",
      "type": "function"
    },
    {
      "inputs": [
        {
          "internalType": "address",
          "name": "to",
          "type": "address"
        },
        {
          "internalType": "uint256",
          "name": "amount",
          "type": "uint256"
        }
      ],
      "name": "withdrawTo",
      "outputs": [],
      "stateMutability": "nonpayable",
      "type": "function"
    }
  ],
  "bytecode": {
    "object": "0x60c06040527f8b73c3c69bb8fe3d512ecc4cf759cc79239f7b179b0ffacaa9a75d522b39400f6080527f6e71edae12b1b97f4d1f60370fef10105fa2faae0126114a169c64845d6126c960a0523480156200005957600080fd5b50620000646200006a565b6200012c565b600954610100900460ff1615620000d75760405162461bcd60e51b815260206004820152602760248201527f496e697469616c697a61626c653a20636f6e747261637420697320696e697469604482015266616c697a696e6760c81b606482015260840160405180910390fd5b60095460ff90811610156200012a576009805460ff191660ff9081179091556040519081527f7f26b83ff96e1f2b6a682f133852f6798a09c465da95921460cefb38474024989060200160405180910390a15b565b60805160a0516134ea620001606000396000818161036601526118640152600081816105d1015261085301526134ea6000f3fe608060405234801561001057600080fd5b50600436106102925760003560e01c80637816037611610160578063a9059cbb116100d8578063bcb619201161008c578063dd62ed3e11610071578063dd62ed3e14610593578063e1b11da4146105cc578063fc0c546a146105f357600080fd5b8063bcb619201461056d578063d505accf1461058057600080fd5b8063b1bf962d116100bd578063b1bf962d14610528578063b6b55f2514610530578063b74795d91461054357600080fd5b8063a9059cbb1461050d578063af14052c1461052057600080fd5b806395d89b411161012f5780639e978575116101145780639e978575146104d4578063a3a7e7f3146104e7578063a457c2d7146104fa57600080fd5b806395d89b41146104b95780639bfdf766146104c157600080fd5b806378160376146104395780637998a1c4146104755780637ecebe001461047d57806384d4b410146104a657600080fd5b8063313ce5671161020e57806354fd4d50116101c25780636c67e807116101a75780636c67e8071461040057806370a0823114610413578063759cc4b51461042657600080fd5b806354fd4d50146103dd5780635600f04f146103f857600080fd5b806339509351116101f357806339509351146103af57806342dfe958146103c25780634a79d50c146103d557600080fd5b8063313ce567146103885780633644e515146103a757600080fd5b8063205c2878116102655780632e1a7d4d1161024a5780632e1a7d4d1461033b5780632f4f21e21461034e57806330adf81f1461036157600080fd5b8063205c28781461031357806323b872dd1461032857600080fd5b806306fdde0314610297578063095ea7b3146102b557806318160ddd146102d85780631da24f3e146102ea575b600080fd5b61029f610604565b6040516102ac9190612b65565b60405180910390f35b6102c86102c3366004612b8d565b610692565b60405190151581526020016102ac565b6002545b6040519081526020016102ac565b6102dc6102f8366004612bb9565b6001600160a01b031660009081526003602052604090205490565b610326610321366004612b8d565b610736565b005b6102c8610336366004612bd6565b610745565b610326610349366004612c17565b610836565b61032661035c366004612b8d565b610844565b6102dc7f000000000000000000000000000000000000000000000000000000000000000081565b6007546103959060ff1681565b60405160ff90911681526020016102ac565b6102dc61084f565b6102c86103bd366004612b8d565b61091a565b6103266103d0366004612d37565b6109b9565b61029f610c82565b603d54603e54604080519283526020830191909152016102ac565b61029f610d17565b61032661040e366004612e13565b610d29565b6102dc610421366004612bb9565b610fec565b610326610434366004612b8d565b611013565b61029f6040518060400160405280600181526020017f310000000000000000000000000000000000000000000000000000000000000081525081565b6102dc6110ca565b6102dc61048b366004612bb9565b6001600160a01b031660009081526008602052604090205490565b6102c86104b4366004612e43565b61121a565b61029f611300565b6103266104cf366004612e71565b61130d565b6102c86104e2366004612ec1565b611397565b6102c86104f5366004612bb9565b6113b4565b6102c8610508366004612b8d565b611430565b6102c861051b366004612b8d565b61150d565b6103266115b4565b6102dc6115be565b61032661053e366004612c17565b6115c8565b603c5461010090046001600160a01b03165b6040516001600160a01b0390911681526020016102ac565b61032661057b366004612e13565b6115d3565b61032661058e366004612f05565b611821565b6102dc6105a1366004612e43565b6001600160a01b03918216600090815260046020908152604080832093909416825291909152205490565b6102dc7f000000000000000000000000000000000000000000000000000000000000000081565b6041546001600160a01b0316610555565b6005805461061190612f76565b80601f016020809104026020016040519081016040528092919081815260200182805461063d90612f76565b801561068a5780601f1061065f5761010080835404028352916020019161068a565b820191906000526020600020905b81548152906001019060200180831161066d57829003601f168201915b505050505081565b6000826001600160a01b03811615806106b357506001600160a01b03811630145b156106d157604051634e46966960e11b815260040160405180910390fd5b3360008181526004602090815260408083206001600160a01b03891680855290835292819020879055518681529192917f8c5be1e5ebec7d5bd14f71427d1e84f3dd0314c0f7b2291e5b200ac8c7c3b925910160405180910390a35060019392505050565b610741338383611a06565b5050565b6000836001600160a01b038116158061076657506001600160a01b03811630145b1561078457604051634e46966960e11b815260040160405180910390fd5b836001600160a01b03811615806107a357506001600160a01b03811630145b156107c157604051634e46966960e11b815260040160405180910390fd5b83806000036107fc576040517f2c5211c600000000000000000000000000000000000000000000000000000000815260040160405180910390fd5b610804611a7f565b600061080f86611b13565b905061081c883388611b6a565b61082888888884611bd9565b506001979650505050505050565b610841333383611a06565b50565b610741338383611cbf565b60007f000000000000000000000000000000000000000000000000000000000000000060056040516108819190612fc3565b604080519182900382208282018252600183527f31000000000000000000000000000000000000000000000000000000000000006020938401528151928301939093528101919091527fc89efdaa54c0f20c7adf612882df0950f5a951637e0307cdcb4c672f298b8bc660608201524660808201523060a082015260c00160405160208183030381529060405280519060200120905090565b3360009081526004602090815260408083206001600160a01b038616845290915281208054839190839061094f908490613068565b90915550503360008181526004602090815260408083206001600160a01b038816808552908352928190205490519081529192917f8c5be1e5ebec7d5bd14f71427d1e84f3dd0314c0f7b2291e5b200ac8c7c3b92591015b60405180910390a35060015b92915050565b600954610100900460ff16158080156109d95750600954600160ff909116105b806109f35750303b1580156109f3575060095460ff166001145b610a6a5760405162461bcd60e51b815260206004820152602e60248201527f496e697469616c697a61626c653a20636f6e747261637420697320616c72656160448201527f647920696e697469616c697a656400000000000000000000000000000000000060648201526084015b60405180910390fd5b6009805460ff191660011790558015610aaa57600980547fffffffffffffffffffffffffffffffffffffffffffffffffffffffffffff00ff166101001790555b610ab48484611e5d565b600082806020019051810190610aca919061307b565b905080604160006101000a8154816001600160a01b0302191690836001600160a01b031602179055506000610b5f866001600160a01b031663736963a76040518163ffffffff1660e01b8152600401602060405180830381865afa158015610b36573d6000803e3d6000fd5b505050506040513d601f19601f82011682018060405250810190610b5a9190613098565b611fd0565b9050600081604051602001610b7491906130b1565b6040516020818303038152906040529050600082604051602001610b98919061311c565b6040516020818303038152906040529050610c158282866001600160a01b031663313ce5676040518163ffffffff1660e01b8152600401602060405180830381865afa158015610bec573d6000803e3d6000fd5b505050506040513d601f19601f82011682018060405250810190610c109190613161565b612070565b505050508015610c7c57600980547fffffffffffffffffffffffffffffffffffffffffffffffffffffffffffff00ff169055604051600181527f7f26b83ff96e1f2b6a682f133852f6798a09c465da95921460cefb38474024989060200160405180910390a15b50505050565b6060603d6003018054610c9490612f76565b80601f0160208091040260200160405190810160405280929190818152602001828054610cc090612f76565b8015610d0d5780601f10610ce257610100808354040283529160200191610d0d565b820191906000526020600020905b815481529060010190602001808311610cf057829003601f168201915b5050505050905090565b6060603d6002018054610c9490612f76565b6000603c60019054906101000a90046001600160a01b03166001600160a01b031663d09edf316040518163ffffffff1660e01b8152600401602060405180830381865afa158015610d7e573d6000803e3d6000fd5b505050506040513d601f19601f82011682018060405250810190610da2919061307b565b90506000816001600160a01b03166355ff58d46040518163ffffffff1660e01b8152600401602060405180830381865afa158015610de4573d6000803e3d6000fd5b505050506040513d601f19601f82011682018060405250810190610e089190613098565b90506001600160a01b0382166391d1485482336040517fffffffff0000000000000000000000000000000000000000000000000000000060e085901b16815260048101929092526001600160a01b03166024820152604401602060405180830381865afa158015610e7d573d6000803e3d6000fd5b505050506040513d601f19601f82011682018060405250810190610ea1919061318e565b610eec5780335b6040517f42abbb7700000000000000000000000000000000000000000000000000000000815260048101929092526001600160a01b03166024820152604401610a61565b6000603c60019054906101000a90046001600160a01b03166001600160a01b031663d09edf316040518163ffffffff1660e01b8152600401602060405180830381865afa158015610f41573d6000803e3d6000fd5b505050506040513d601f19601f82011682018060405250810190610f65919061307b565b6040517fe1788154000000000000000000000000000000000000000000000000000000008152600481018790526001600160a01b0386811660248301529192509082169063e1788154906044015b600060405180830381600087803b158015610fcd57600080fd5b505af1158015610fe1573d6000803e3d6000fd5b505050505050505050565b6001546001600160a01b03821660009081526003602052604081205490916109b3916131d8565b603c5461010090046001600160a01b0316336001600160a01b031614611065576040517fe614e81b00000000000000000000000000000000000000000000000000000000815260040160405180910390fd5b816001600160a01b038116158061108457506001600160a01b03811630145b156110bb576040517f1f01ebd800000000000000000000000000000000000000000000000000000000815260040160405180910390fd5b6110c583836120fa565b505050565b60408051608081018252603d80548252603e546020830152603f8054600094611215949392908401916110fc90612f76565b80601f016020809104026020016040519081016040528092919081815260200182805461112890612f76565b80156111755780601f1061114a57610100808354040283529160200191611175565b820191906000526020600020905b81548152906001019060200180831161115857829003601f168201915b5050505050815260200160038201805461118e90612f76565b80601f01602080910402602001604051908101604052809291908181526020018280546111ba90612f76565b80156112075780601f106111dc57610100808354040283529160200191611207565b820191906000526020600020905b8154815290600101906020018083116111ea57829003601f168201915b50505050508152505061214b565b905090565b6000826001600160a01b038116158061123b57506001600160a01b03811630145b1561125957604051634e46966960e11b815260040160405180910390fd5b826001600160a01b038116158061127857506001600160a01b03811630145b1561129657604051634e46966960e11b815260040160405180910390fd5b61129e611a7f565b6001600160a01b038516600090815260036020526040812054906112c18261218b565b9050806000036112dc576112d787336001611b6a565b6112e7565b6112e7873383611b6a565b6112f387878385611bd9565b5060019695505050505050565b6006805461061190612f76565b603c5460ff161561134a576040517f904875a100000000000000000000000000000000000000000000000000000000815260040160405180910390fd5b603c805460ff19166001179055806113618161219b565b6110c5576040517feef043ae00000000000000000000000000000000000000000000000000000000815260040160405180910390fd5b6000818060200190518101906113ad91906131ec565b5092915050565b6000816001600160a01b03811615806113d557506001600160a01b03811630145b156113f357604051634e46966960e11b815260040160405180910390fd5b6113fb611a7f565b33600090815260036020526040812054906114158261218b565b905061142333868385611bd9565b6001935050505b50919050565b3360009081526004602090815260408083206001600160a01b03861684529091528120548210611483573360009081526004602090815260408083206001600160a01b03871684529091528120556114b6565b3360009081526004602090815260408083206001600160a01b03871684529091528120805484929061094f9084906132fd565b3360008181526004602090815260408083206001600160a01b038816808552908352928190205490519081529192917f8c5be1e5ebec7d5bd14f71427d1e84f3dd0314c0f7b2291e5b200ac8c7c3b92591016109a7565b6000826001600160a01b038116158061152e57506001600160a01b03811630145b1561154c57604051634e46966960e11b815260040160405180910390fd5b8280600003611587576040517f2c5211c600000000000000000000000000000000000000000000000000000000815260040160405180910390fd5b61158f611a7f565b600061159a85611b13565b90506115a833878784611bd9565b50600195945050505050565b6115bc611a7f565b565b60006112156122a8565b610841333383611cbf565b6000603c60019054906101000a90046001600160a01b03166001600160a01b031663d09edf316040518163ffffffff1660e01b8152600401602060405180830381865afa158015611628573d6000803e3d6000fd5b505050506040513d601f19601f8201168201806040525081019061164c919061307b565b90506000816001600160a01b03166355ff58d46040518163ffffffff1660e01b8152600401602060405180830381865afa15801561168e573d6000803e3d6000fd5b505050506040513d601f19601f820116820180604052508101906116b29190613098565b90506001600160a01b0382166391d1485482336040517fffffffff0000000000000000000000000000000000000000000000000000000060e085901b16815260048101929092526001600160a01b03166024820152604401602060405180830381865afa158015611727573d6000803e3d6000fd5b505050506040513d601f19601f8201168201806040525081019061174b919061318e565b611756578033610ea8565b6000603c60019054906101000a90046001600160a01b03166001600160a01b031663d09edf316040518163ffffffff1660e01b8152600401602060405180830381865afa1580156117ab573d6000803e3d6000fd5b505050506040513d601f19601f820116820180604052508101906117cf919061307b565b6040517fba66f9fc000000000000000000000000000000000000000000000000000000008152600481018790526001600160a01b0386811660248301529192509082169063ba66f9fc90604401610fb3565b8342111561182e57600080fd5b6000600161183a61084f565b6001600160a01b038a811660008181526008602090815260409182902080546001810190915582517f00000000000000000000000000000000000000000000000000000000000000008184015280840194909452938d166060840152608083018c905260a083019390935260c08083018b90528151808403909101815260e0830190915280519201919091207f19010000000000000000000000000000000000000000000000000000000000006101008301526101028201929092526101228101919091526101420160408051601f198184030181528282528051602091820120600084529083018083525260ff871690820152606081018590526080810184905260a0016020604051602081039080840390855afa158015611961573d6000803e3d6000fd5b5050604051601f1901519150506001600160a01b038116158015906119975750876001600160a01b0316816001600160a01b0316145b6119a057600080fd5b506001600160a01b038781166000818152600460209081526040808320948b168084529482529182902089905590518881527f8c5be1e5ebec7d5bd14f71427d1e84f3dd0314c0f7b2291e5b200ac8c7c3b925910160405180910390a350505050505050565b611a108382612302565b9050611a398282611a296041546001600160a01b031690565b6001600160a01b03169190612434565b80826001600160a01b0316846001600160a01b03167f2717ead6b9200dd235aad468c9809ea400fe33ac69b5bfaa6d3e90fc922b639860405160405180910390a4505050565b6000611a896124dd565b9050801580611aa357506b033b2e3c9fd0803ce800000081115b15611aab5750565b80611ab46122a8565b611abe91906131d8565b6001556002819055600080549080611ad583613310565b90915550506000546040518281527f11c6bf55864ff83827df712625d7a80e5583eef0264921025e7cd22003a215119060200160405180910390a250565b6000600154600014611b3157600154611b2c908361332a565b6109b3565b6b033b2e3c9fd0803ce8000000611b4a81600019613341565b611b56906000196132fd565b611b6091906131d8565b6109b3908361332a565b6001600160a01b03808416600090815260046020908152604080832093861683529290522054600019146110c5576001600160a01b03808416600090815260046020908152604080832093861683529290529081208054839290611bcf9084906132fd565b9091555050505050565b6001600160a01b03841660009081526003602052604081208054839290611c019084906132fd565b90915550506001600160a01b03831660009081526003602052604081208054839290611c2e908490613068565b90915550506001600160a01b0384166000908152600360205260408120549003611c6c576001600160a01b0384166000908152600360205260408120555b826001600160a01b0316846001600160a01b03167fddf252ad1be2c89b69c2b068fc378daa952ba7f163c4a11628f55a4df523b3ef84604051611cb191815260200190565b60405180910390a350505050565b306001600160a01b03841603611d01576040517ff7cd8f7100000000000000000000000000000000000000000000000000000000815260040160405180910390fd5b6a52b7d2dcc80cd2e4000000611d1f6041546001600160a01b031690565b6040517f70a082310000000000000000000000000000000000000000000000000000000081523060048201526001600160a01b0391909116906370a0823190602401602060405180830381865afa158015611d7e573d6000803e3d6000fd5b505050506040513d601f19601f82011682018060405250810190611da29190613098565b611dac9083613068565b1115611de4576040517fd335887400000000000000000000000000000000000000000000000000000000815260040160405180910390fd5b611dee8282612574565b611e17833083611e066041546001600160a01b031690565b6001600160a01b0316929190612704565b80826001600160a01b0316846001600160a01b03167f5548c837ab068cf56a2c2479df0882a4922fd203edb7517321831d95078c5f6260405160405180910390a4505050565b600954610100900460ff16611eda5760405162461bcd60e51b815260206004820152602b60248201527f496e697469616c697a61626c653a20636f6e7472616374206973206e6f74206960448201527f6e697469616c697a696e670000000000000000000000000000000000000000006064820152608401610a61565b6001600160a01b038216611f1a576040517f7280679300000000000000000000000000000000000000000000000000000000815260040160405180910390fd5b603c80547fffffffffffffffffffffff0000000000000000000000000000000000000000ff166101006001600160a01b03851602179055611f5a81612755565b611f90576040517f7511254100000000000000000000000000000000000000000000000000000000815260040160405180910390fd5b8051603d9081556020820151603e556040820151829190603f90611fb4908261339b565b5060608201516003820190611fc9908261339b565b5050505050565b60606000611fdd836127a7565b600101905060008167ffffffffffffffff811115611ffd57611ffd612c30565b6040519080825280601f01601f191660200182016040528015612027576020820181803683370190505b5090508181016020015b600019017f3031323334353637383961626364656600000000000000000000000000000000600a86061a8153600a850494508461203157509392505050565b6002541561207d57600080fd5b6005612089848261339b565b506006612096838261339b565b506007805460ff191660ff83161790556120be6b033b2e3c9fd0803ce8000000600019613341565b6120ca906000196132fd565b6000805260036020527f3617319a054d772f909f7c479a2cebe5066e836a939412e32403c99029b92eff55505050565b6121118282611a296041546001600160a01b031690565b60405181906001600160a01b038416907fe88292c5f714100904272672c0420345093bd0e3c5555d31f3e4e2cf5f6ca8a190600090a35050565b600081600001518260400151836060015160405160200161216e9392919061345b565b604051602081830303815290604052805190602001209050919050565b6000600154826109b391906131d8565b6040517f9e9785750000000000000000000000000000000000000000000000000000000081526000903090639e978575906121da908590600401612b65565b602060405180830381865afa925050508015612213575060408051601f3d908101601f191682019092526122109181019061318e565b60015b61221f57506000919050565b6040517f9e9785750000000000000000000000000000000000000000000000000000000081523090639e9785759061225b908690600401612b65565b602060405180830381865afa158015612278573d6000803e3d6000fd5b505050506040513d601f19601f8201168201806040525081019061229c919061318e565b9392505050565b919050565b600080805260036020527f3617319a054d772f909f7c479a2cebe5066e836a939412e32403c99029b92eff546122ec6b033b2e3c9fd0803ce8000000600019613341565b6122f8906000196132fd565b61121591906132fd565b6000826001600160a01b038116158061232357506001600160a01b03811630145b1561234157604051634e46966960e11b815260040160405180910390fd5b828060000361237c576040517f2c5211c600000000000000000000000000000000000000000000000000000000815260040160405180910390fd5b600061238785611b13565b9050612391611a7f565b61239a8161218b565b94506123a98660008784611bd9565b84600260008282546123bb91906132fd565b90915550506002546123cb6122a8565b6123d591906131d8565b6001556000805490806123e783613310565b91905055506000547f11c6bf55864ff83827df712625d7a80e5583eef0264921025e7cd22003a2151160025460405161242291815260200190565b60405180910390a25092949350505050565b6040516001600160a01b0383166024820152604481018290526110c59084907fa9059cbb00000000000000000000000000000000000000000000000000000000906064015b60408051601f198184030181529190526020810180517bffffffffffffffffffffffffffffffffffffffffffffffffffffffff167fffffffff0000000000000000000000000000000000000000000000000000000090931692909217909152612889565b60006124f16041546001600160a01b031690565b6040517f70a082310000000000000000000000000000000000000000000000000000000081523060048201526001600160a01b0391909116906370a0823190602401602060405180830381865afa158015612550573d6000803e3d6000fd5b505050506040513d601f19601f820116820180604052508101906112159190613098565b816001600160a01b038116158061259357506001600160a01b03811630145b156125b157604051634e46966960e11b815260040160405180910390fd5b81806000036125ec576040517f2c5211c600000000000000000000000000000000000000000000000000000000815260040160405180910390fd5b6125f4611a7f565b6b033b2e3c9fd0803ce80000008360025461260f9190613068565b1115612647576040517fd05cb60900000000000000000000000000000000000000000000000000000000815260040160405180910390fd5b600061265284611b13565b905060008161265f6122a8565b6126699190613068565b9050846002600082825461267d9190613068565b909155505060015460000361269d5760025461269990826131d8565b6001555b6000805490806126ac83613310565b91905055506000547f11c6bf55864ff83827df712625d7a80e5583eef0264921025e7cd22003a215116002546040516126e791815260200190565b60405180910390a26126fc6000878785611bd9565b505050505050565b6040516001600160a01b0380851660248301528316604482015260648101829052610c7c9085907f23b872dd0000000000000000000000000000000000000000000000000000000090608401612479565b600081604001515160000361276c57506000919050565b81606001515160000361278157506000919050565b815115801561279257506020820151155b1561279f57506000919050565b506001919050565b6000807a184f03e93ff9f4daa797ed6e38ed64bf6a1f01000000000000000083106127f0577a184f03e93ff9f4daa797ed6e38ed64bf6a1f010000000000000000830492506040015b6d04ee2d6d415b85acef8100000000831061281c576d04ee2d6d415b85acef8100000000830492506020015b662386f26fc10000831061283a57662386f26fc10000830492506010015b6305f5e1008310612852576305f5e100830492506008015b612710831061286657612710830492506004015b60648310612878576064830492506002015b600a83106109b35760010192915050565b60006128de826040518060400160405280602081526020017f5361666545524332303a206c6f772d6c6576656c2063616c6c206661696c6564815250856001600160a01b031661296e9092919063ffffffff16565b8051909150156110c557808060200190518101906128fc919061318e565b6110c55760405162461bcd60e51b815260206004820152602a60248201527f5361666545524332303a204552433230206f7065726174696f6e20646964206e60448201527f6f742073756363656564000000000000000000000000000000000000000000006064820152608401610a61565b606061297d8484600085612985565b949350505050565b6060824710156129fd5760405162461bcd60e51b815260206004820152602660248201527f416464726573733a20696e73756666696369656e742062616c616e636520666f60448201527f722063616c6c00000000000000000000000000000000000000000000000000006064820152608401610a61565b600080866001600160a01b03168587604051612a199190613498565b60006040518083038185875af1925050503d8060008114612a56576040519150601f19603f3d011682016040523d82523d6000602084013e612a5b565b606091505b5091509150612a6c87838387612a77565b979650505050505050565b60608315612ae6578251600003612adf576001600160a01b0385163b612adf5760405162461bcd60e51b815260206004820152601d60248201527f416464726573733a2063616c6c20746f206e6f6e2d636f6e74726163740000006044820152606401610a61565b508161297d565b61297d8383815115612afb5781518083602001fd5b8060405162461bcd60e51b8152600401610a619190612b65565b60005b83811015612b30578181015183820152602001612b18565b50506000910152565b60008151808452612b51816020860160208601612b15565b601f01601f19169290920160200192915050565b60208152600061229c6020830184612b39565b6001600160a01b038116811461084157600080fd5b60008060408385031215612ba057600080fd5b8235612bab81612b78565b946020939093013593505050565b600060208284031215612bcb57600080fd5b813561229c81612b78565b600080600060608486031215612beb57600080fd5b8335612bf681612b78565b92506020840135612c0681612b78565b929592945050506040919091013590565b600060208284031215612c2957600080fd5b5035919050565b7f4e487b7100000000000000000000000000000000000000000000000000000000600052604160045260246000fd5b6040516080810167ffffffffffffffff81118282101715612c8257612c82612c30565b60405290565b604051601f8201601f1916810167ffffffffffffffff81118282101715612cb157612cb1612c30565b604052919050565b600067ffffffffffffffff821115612cd357612cd3612c30565b50601f01601f191660200190565b600082601f830112612cf257600080fd5b8135612d05612d0082612cb9565b612c88565b818152846020838601011115612d1a57600080fd5b816020850160208301376000918101602001919091529392505050565b600080600060608486031215612d4c57600080fd5b8335612d5781612b78565b9250602084013567ffffffffffffffff80821115612d7457600080fd5b9085019060808288031215612d8857600080fd5b612d90612c5f565b8235815260208301356020820152604083013582811115612db057600080fd5b612dbc89828601612ce1565b604083015250606083013582811115612dd457600080fd5b612de089828601612ce1565b60608301525093506040860135915080821115612dfc57600080fd5b50612e0986828701612ce1565b9150509250925092565b60008060408385031215612e2657600080fd5b823591506020830135612e3881612b78565b809150509250929050565b60008060408385031215612e5657600080fd5b8235612e6181612b78565b91506020830135612e3881612b78565b60008060408385031215612e8457600080fd5b8235612e8f81612b78565b9150602083013567ffffffffffffffff811115612eab57600080fd5b612eb785828601612ce1565b9150509250929050565b600060208284031215612ed357600080fd5b813567ffffffffffffffff811115612eea57600080fd5b61297d84828501612ce1565b60ff8116811461084157600080fd5b600080600080600080600060e0888a031215612f2057600080fd5b8735612f2b81612b78565b96506020880135612f3b81612b78565b955060408801359450606088013593506080880135612f5981612ef6565b9699959850939692959460a0840135945060c09093013592915050565b600181811c90821680612f8a57607f821691505b60208210810361142a577f4e487b7100000000000000000000000000000000000000000000000000000000600052602260045260246000fd5b6000808354612fd181612f76565b60018281168015612fe95760018114612ffe5761302d565b60ff198416875282151583028701945061302d565b8760005260208060002060005b858110156130245781548a82015290840190820161300b565b50505082870194505b50929695505050505050565b7f4e487b7100000000000000000000000000000000000000000000000000000000600052601160045260246000fd5b808201808211156109b3576109b3613039565b60006020828403121561308d57600080fd5b815161229c81612b78565b6000602082840312156130aa57600080fd5b5051919050565b7f496e7665727465722046756e64696e6720546f6b656e202d204f72636865737481527f7261746f7220230000000000000000000000000000000000000000000000000060208201526000825161310f816027850160208701612b15565b9190910160270192915050565b7f4946542d00000000000000000000000000000000000000000000000000000000815260008251613154816004850160208701612b15565b9190910160040192915050565b60006020828403121561317357600080fd5b815161229c81612ef6565b805180151581146122a357600080fd5b6000602082840312156131a057600080fd5b61229c8261317e565b7f4e487b7100000000000000000000000000000000000000000000000000000000600052601260045260246000fd5b6000826131e7576131e76131a9565b500490565b600080604080848603121561320057600080fd5b6132098461317e565b925060208085015167ffffffffffffffff8082111561322757600080fd5b818701915087601f83011261323b57600080fd5b81518181111561324d5761324d612c30565b8060051b61325c858201612c88565b918252838101850191858101908b84111561327657600080fd5b86860192505b838310156132eb578251858111156132945760008081fd5b8601603f81018d136132a65760008081fd5b878101516132b6612d0082612cb9565b8181528e8b8385010111156132cb5760008081fd5b6132da828b83018d8601612b15565b84525050918601919086019061327c565b80985050505050505050509250929050565b818103818111156109b3576109b3613039565b6000600019820361332357613323613039565b5060010190565b80820281158282048414176109b3576109b3613039565b600082613350576133506131a9565b500690565b601f8211156110c557600081815260208120601f850160051c8101602086101561337c5750805b601f850160051c820191505b818110156126fc57828155600101613388565b815167ffffffffffffffff8111156133b5576133b5612c30565b6133c9816133c38454612f76565b84613355565b602080601f8311600181146133fe57600084156133e65750858301515b600019600386901b1c1916600185901b1785556126fc565b600085815260208120601f198616915b8281101561342d5788860151825594840194600190910190840161340e565b508582101561344b5787850151600019600388901b60f8161c191681555b5050505050600190811b01905550565b83815260008351613473816020850160208801612b15565b8083019050835161348b816020840160208801612b15565b0160200195945050505050565b600082516134aa818460208701612b15565b919091019291505056fea26469706673582212208a42a572679ea6fb5483ce1ec9963a410276f16f7f3fb3d0dd597adc0b0891fb64736f6c63430008130033",
    "linkReferences": {}
  },
  "methodIdentifiers": {
    "DOMAIN_SEPARATOR()": "3644e515",
    "EIP712_DOMAIN()": "e1b11da4",
    "EIP712_REVISION()": "78160376",
    "PERMIT_TYPEHASH()": "30adf81f",
    "allowance(address,address)": "dd62ed3e",
    "approve(address,uint256)": "095ea7b3",
    "balanceOf(address)": "70a08231",
    "decimals()": "313ce567",
    "decoder(bytes)": "9e978575",
    "decreaseAllowance(address,uint256)": "a457c2d7",
    "deposit(uint256)": "b6b55f25",
    "depositFor(address,uint256)": "2f4f21e2",
    "grantModuleRole(bytes32,address)": "6c67e807",
    "identifier()": "7998a1c4",
    "increaseAllowance(address,uint256)": "39509351",
    "init(address,(uint256,uint256,string,string),bytes)": "42dfe958",
    "init2(address,bytes)": "9bfdf766",
    "name()": "06fdde03",
    "nonces(address)": "7ecebe00",
    "orchestrator()": "b74795d9",
    "permit(address,address,uint256,uint256,uint8,bytes32,bytes32)": "d505accf",
    "rebase()": "af14052c",
    "revokeModuleRole(bytes32,address)": "bcb61920",
    "scaledBalanceOf(address)": "1da24f3e",
    "scaledTotalSupply()": "b1bf962d",
    "symbol()": "95d89b41",
    "title()": "4a79d50c",
    "token()": "fc0c546a",
    "totalSupply()": "18160ddd",
    "transfer(address,uint256)": "a9059cbb",
    "transferAll(address)": "a3a7e7f3",
    "transferAllFrom(address,address)": "84d4b410",
    "transferFrom(address,address,uint256)": "23b872dd",
    "transferOrchestratorToken(address,uint256)": "759cc4b5",
    "url()": "5600f04f",
    "version()": "54fd4d50",
    "withdraw(uint256)": "2e1a7d4d",
    "withdrawTo(address,uint256)": "205c2878"
  },
  "id": 88
}