{
  "abi": [
    {
      "inputs": [
        {
          "internalType": "string",
          "name": "funcSig",
          "type": "string"
        }
      ],
      "name": "Module_OrchestratorCallbackFailed",
      "type": "error"
    },
    {
      "inputs": [
        {
          "internalType": "bytes32",
          "name": "role",
          "type": "bytes32"
        },
        {
          "internalType": "address",
          "name": "caller",
          "type": "address"
        }
      ],
      "name": "Module__CallerNotAuthorized",
      "type": "error"
    },
    {
      "inputs": [],
      "name": "Module__CannotCallInit2Again",
      "type": "error"
    },
    {
      "inputs": [],
      "name": "Module__InvalidMetadata",
      "type": "error"
    },
    {
      "inputs": [],
      "name": "Module__InvalidOrchestratorAddress",
      "type": "error"
    },
    {
      "inputs": [],
      "name": "Module__NoDependencyOrMalformedDependencyData",
      "type": "error"
    },
    {
      "inputs": [],
      "name": "Module__OnlyCallableByOrchestrator",
      "type": "error"
    },
    {
      "inputs": [],
      "name": "Module__RoleAuthorizer__ModuleNotSelfManaged",
      "type": "error"
    },
    {
      "inputs": [
        {
          "internalType": "address",
          "name": "module",
          "type": "address"
        }
      ],
      "name": "Module__RoleAuthorizer__NotActiveModule",
      "type": "error"
    },
    {
      "inputs": [],
      "name": "Module__RoleAuthorizer__OwnerRoleCannotBeEmpty",
      "type": "error"
    },
    {
      "inputs": [
        {
          "internalType": "uint256",
          "name": "threshold",
          "type": "uint256"
        }
      ],
      "name": "Module__TokenGatedRoleAuthorizer__InvalidThreshold",
      "type": "error"
    },
    {
      "inputs": [
        {
          "internalType": "address",
          "name": "token",
          "type": "address"
        }
      ],
      "name": "Module__TokenGatedRoleAuthorizer__InvalidToken",
      "type": "error"
    },
    {
      "inputs": [],
      "name": "Module__TokenGatedRoleAuthorizer__RoleNotEmpty",
      "type": "error"
    },
    {
      "inputs": [],
      "name": "Module__TokenGatedRoleAuthorizer__RoleNotTokenGated",
      "type": "error"
    },
    {
      "anonymous": false,
      "inputs": [
        {
          "indexed": false,
          "internalType": "bytes32",
          "name": "role",
          "type": "bytes32"
        },
        {
          "indexed": false,
          "internalType": "bool",
          "name": "newValue",
          "type": "bool"
        }
      ],
      "name": "ChangedTokenGating",
      "type": "event"
    },
    {
      "anonymous": false,
      "inputs": [
        {
          "indexed": false,
          "internalType": "bytes32",
          "name": "role",
          "type": "bytes32"
        },
        {
          "indexed": false,
          "internalType": "address",
          "name": "token",
          "type": "address"
        },
        {
          "indexed": false,
          "internalType": "uint256",
          "name": "newValue",
          "type": "uint256"
        }
      ],
      "name": "ChangedTokenThreshold",
      "type": "event"
    },
    {
      "anonymous": false,
      "inputs": [
        {
          "indexed": false,
          "internalType": "uint8",
          "name": "version",
          "type": "uint8"
        }
      ],
      "name": "Initialized",
      "type": "event"
    },
    {
      "anonymous": false,
      "inputs": [
        {
          "indexed": true,
          "internalType": "bytes32",
          "name": "role",
          "type": "bytes32"
        },
        {
          "indexed": true,
          "internalType": "bytes32",
          "name": "previousAdminRole",
          "type": "bytes32"
        },
        {
          "indexed": true,
          "internalType": "bytes32",
          "name": "newAdminRole",
          "type": "bytes32"
        }
      ],
      "name": "RoleAdminChanged",
      "type": "event"
    },
    {
      "anonymous": false,
      "inputs": [
        {
          "indexed": true,
          "internalType": "bytes32",
          "name": "role",
          "type": "bytes32"
        },
        {
          "indexed": true,
          "internalType": "address",
          "name": "account",
          "type": "address"
        },
        {
          "indexed": true,
          "internalType": "address",
          "name": "sender",
          "type": "address"
        }
      ],
      "name": "RoleGranted",
      "type": "event"
    },
    {
      "anonymous": false,
      "inputs": [
        {
          "indexed": true,
          "internalType": "bytes32",
          "name": "role",
          "type": "bytes32"
        },
        {
          "indexed": true,
          "internalType": "address",
          "name": "account",
          "type": "address"
        },
        {
          "indexed": true,
          "internalType": "address",
          "name": "sender",
          "type": "address"
        }
      ],
      "name": "RoleRevoked",
      "type": "event"
    },
    {
      "anonymous": false,
      "inputs": [
        {
          "indexed": false,
          "internalType": "address",
          "name": "who",
          "type": "address"
        },
        {
          "indexed": false,
          "internalType": "bool",
          "name": "newValue",
          "type": "bool"
        }
      ],
      "name": "setRoleSelfManagement",
      "type": "event"
    },
    {
      "inputs": [],
      "name": "BURN_ADMIN_ROLE",
      "outputs": [
        {
          "internalType": "bytes32",
          "name": "",
          "type": "bytes32"
        }
      ],
      "stateMutability": "view",
      "type": "function"
    },
    {
      "inputs": [],
      "name": "DEFAULT_ADMIN_ROLE",
      "outputs": [
        {
          "internalType": "bytes32",
          "name": "",
          "type": "bytes32"
        }
      ],
      "stateMutability": "view",
      "type": "function"
    },
    {
      "inputs": [],
      "name": "ORCHESTRATOR_MANAGER_ROLE",
      "outputs": [
        {
          "internalType": "bytes32",
          "name": "",
          "type": "bytes32"
        }
      ],
      "stateMutability": "view",
      "type": "function"
    },
    {
      "inputs": [],
      "name": "ORCHESTRATOR_OWNER_ROLE",
      "outputs": [
        {
          "internalType": "bytes32",
          "name": "",
          "type": "bytes32"
        }
      ],
      "stateMutability": "view",
      "type": "function"
    },
    {
      "inputs": [
        {
          "internalType": "bytes32",
          "name": "role",
          "type": "bytes32"
        }
      ],
      "name": "burnAdminFromModuleRole",
      "outputs": [],
      "stateMutability": "nonpayable",
      "type": "function"
    },
    {
      "inputs": [
        {
          "internalType": "bytes",
          "name": "data",
          "type": "bytes"
        }
      ],
      "name": "decoder",
      "outputs": [
        {
          "internalType": "bool",
          "name": "requirement",
          "type": "bool"
        }
      ],
      "stateMutability": "pure",
      "type": "function"
    },
    {
      "inputs": [
        {
          "internalType": "address",
          "name": "module",
          "type": "address"
        },
        {
          "internalType": "bytes32",
          "name": "role",
          "type": "bytes32"
        }
      ],
      "name": "generateRoleId",
      "outputs": [
        {
          "internalType": "bytes32",
          "name": "",
          "type": "bytes32"
        }
      ],
      "stateMutability": "pure",
      "type": "function"
    },
    {
      "inputs": [],
      "name": "getManagerRole",
      "outputs": [
        {
          "internalType": "bytes32",
          "name": "",
          "type": "bytes32"
        }
      ],
      "stateMutability": "pure",
      "type": "function"
    },
    {
      "inputs": [],
      "name": "getOwnerRole",
      "outputs": [
        {
          "internalType": "bytes32",
          "name": "",
          "type": "bytes32"
        }
      ],
      "stateMutability": "pure",
      "type": "function"
    },
    {
      "inputs": [
        {
          "internalType": "bytes32",
          "name": "role",
          "type": "bytes32"
        }
      ],
      "name": "getRoleAdmin",
      "outputs": [
        {
          "internalType": "bytes32",
          "name": "",
          "type": "bytes32"
        }
      ],
      "stateMutability": "view",
      "type": "function"
    },
    {
      "inputs": [
        {
          "internalType": "bytes32",
          "name": "role",
          "type": "bytes32"
        },
        {
          "internalType": "uint256",
          "name": "index",
          "type": "uint256"
        }
      ],
      "name": "getRoleMember",
      "outputs": [
        {
          "internalType": "address",
          "name": "",
          "type": "address"
        }
      ],
      "stateMutability": "view",
      "type": "function"
    },
    {
      "inputs": [
        {
          "internalType": "bytes32",
          "name": "role",
          "type": "bytes32"
        }
      ],
      "name": "getRoleMemberCount",
      "outputs": [
        {
          "internalType": "uint256",
          "name": "",
          "type": "uint256"
        }
      ],
      "stateMutability": "view",
      "type": "function"
    },
    {
      "inputs": [
        {
          "internalType": "bytes32",
          "name": "roleId",
          "type": "bytes32"
        },
        {
          "internalType": "address",
          "name": "token",
          "type": "address"
        }
      ],
      "name": "getThresholdValue",
      "outputs": [
        {
          "internalType": "uint256",
          "name": "",
          "type": "uint256"
        }
      ],
      "stateMutability": "view",
      "type": "function"
    },
    {
      "inputs": [
        {
          "internalType": "bytes32",
          "name": "role",
          "type": "bytes32"
        },
        {
          "internalType": "address",
          "name": "target",
          "type": "address"
        }
      ],
      "name": "grantGlobalRole",
      "outputs": [],
      "stateMutability": "nonpayable",
      "type": "function"
    },
    {
      "inputs": [
        {
          "internalType": "bytes32",
          "name": "role",
          "type": "bytes32"
        },
        {
          "internalType": "address",
          "name": "addr",
          "type": "address"
        }
      ],
      "name": "grantModuleRole",
      "outputs": [],
      "stateMutability": "nonpayable",
      "type": "function"
    },
    {
      "inputs": [
        {
          "internalType": "bytes32",
          "name": "role",
          "type": "bytes32"
        },
        {
          "internalType": "address",
          "name": "account",
          "type": "address"
        }
      ],
      "name": "grantRole",
      "outputs": [],
      "stateMutability": "nonpayable",
      "type": "function"
    },
    {
      "inputs": [
        {
          "internalType": "bytes32",
          "name": "role",
          "type": "bytes32"
        },
        {
          "internalType": "address",
          "name": "target",
          "type": "address"
        }
      ],
      "name": "grantRoleFromModule",
      "outputs": [],
      "stateMutability": "nonpayable",
      "type": "function"
    },
    {
      "inputs": [
        {
          "internalType": "bytes32",
          "name": "role",
          "type": "bytes32"
        },
        {
          "internalType": "address",
          "name": "token",
          "type": "address"
        },
        {
          "internalType": "uint256",
          "name": "threshold",
          "type": "uint256"
        }
      ],
      "name": "grantTokenRoleFromModule",
      "outputs": [],
      "stateMutability": "nonpayable",
      "type": "function"
    },
    {
      "inputs": [
        {
          "internalType": "bytes32",
          "name": "role",
          "type": "bytes32"
        },
        {
          "internalType": "address",
          "name": "who",
          "type": "address"
        }
      ],
      "name": "hasModuleRole",
      "outputs": [
        {
          "internalType": "bool",
          "name": "",
          "type": "bool"
        }
      ],
      "stateMutability": "view",
      "type": "function"
    },
    {
      "inputs": [
        {
          "internalType": "bytes32",
          "name": "roleId",
          "type": "bytes32"
        },
        {
          "internalType": "address",
          "name": "account",
          "type": "address"
        }
      ],
      "name": "hasRole",
      "outputs": [
        {
          "internalType": "bool",
          "name": "",
          "type": "bool"
        }
      ],
      "stateMutability": "view",
      "type": "function"
    },
    {
      "inputs": [
        {
          "internalType": "bytes32",
          "name": "role",
          "type": "bytes32"
        },
        {
          "internalType": "address",
          "name": "who",
          "type": "address"
        }
      ],
      "name": "hasTokenRole",
      "outputs": [
        {
          "internalType": "bool",
          "name": "",
          "type": "bool"
        }
      ],
      "stateMutability": "view",
      "type": "function"
    },
    {
      "inputs": [],
      "name": "identifier",
      "outputs": [
        {
          "internalType": "bytes32",
          "name": "",
          "type": "bytes32"
        }
      ],
      "stateMutability": "view",
      "type": "function"
    },
    {
      "inputs": [
        {
          "internalType": "contract IOrchestrator",
          "name": "orchestrator_",
          "type": "address"
        },
        {
          "components": [
            {
              "internalType": "uint256",
              "name": "majorVersion",
              "type": "uint256"
            },
            {
              "internalType": "uint256",
              "name": "minorVersion",
              "type": "uint256"
            },
            {
              "internalType": "string",
              "name": "url",
              "type": "string"
            },
            {
              "internalType": "string",
              "name": "title",
              "type": "string"
            }
          ],
          "internalType": "struct IModule.Metadata",
          "name": "metadata",
          "type": "tuple"
        },
        {
          "internalType": "bytes",
          "name": "configData",
          "type": "bytes"
        }
      ],
      "name": "init",
      "outputs": [],
      "stateMutability": "nonpayable",
      "type": "function"
    },
    {
      "inputs": [
        {
          "internalType": "contract IOrchestrator",
          "name": "orchestrator_",
          "type": "address"
        },
        {
          "internalType": "bytes",
          "name": "dependencyData",
          "type": "bytes"
        }
      ],
      "name": "init2",
      "outputs": [],
      "stateMutability": "nonpayable",
      "type": "function"
    },
    {
      "inputs": [
        {
          "internalType": "bytes32",
          "name": "",
          "type": "bytes32"
        }
      ],
      "name": "isTokenGated",
      "outputs": [
        {
          "internalType": "bool",
          "name": "",
          "type": "bool"
        }
      ],
      "stateMutability": "view",
      "type": "function"
    },
    {
      "inputs": [
        {
          "internalType": "bytes32",
          "name": "role",
          "type": "bytes32"
        }
      ],
      "name": "makeRoleTokenGatedFromModule",
      "outputs": [],
      "stateMutability": "nonpayable",
      "type": "function"
    },
    {
      "inputs": [],
      "name": "orchestrator",
      "outputs": [
        {
          "internalType": "contract IOrchestrator",
          "name": "",
          "type": "address"
        }
      ],
      "stateMutability": "view",
      "type": "function"
    },
    {
      "inputs": [
        {
          "internalType": "bytes32",
          "name": "role",
          "type": "bytes32"
        },
        {
          "internalType": "address",
          "name": "account",
          "type": "address"
        }
      ],
      "name": "renounceRole",
      "outputs": [],
      "stateMutability": "nonpayable",
      "type": "function"
    },
    {
      "inputs": [
        {
          "internalType": "bytes32",
          "name": "role",
          "type": "bytes32"
        },
        {
          "internalType": "address",
          "name": "target",
          "type": "address"
        }
      ],
      "name": "revokeGlobalRole",
      "outputs": [],
      "stateMutability": "nonpayable",
      "type": "function"
    },
    {
      "inputs": [
        {
          "internalType": "bytes32",
          "name": "role",
          "type": "bytes32"
        },
        {
          "internalType": "address",
          "name": "addr",
          "type": "address"
        }
      ],
      "name": "revokeModuleRole",
      "outputs": [],
      "stateMutability": "nonpayable",
      "type": "function"
    },
    {
      "inputs": [
        {
          "internalType": "bytes32",
          "name": "role",
          "type": "bytes32"
        },
        {
          "internalType": "address",
          "name": "account",
          "type": "address"
        }
      ],
      "name": "revokeRole",
      "outputs": [],
      "stateMutability": "nonpayable",
      "type": "function"
    },
    {
      "inputs": [
        {
          "internalType": "bytes32",
          "name": "role",
          "type": "bytes32"
        },
        {
          "internalType": "address",
          "name": "target",
          "type": "address"
        }
      ],
      "name": "revokeRoleFromModule",
      "outputs": [],
      "stateMutability": "nonpayable",
      "type": "function"
    },
    {
      "inputs": [
        {
          "internalType": "bytes32",
          "name": "roleId",
          "type": "bytes32"
        },
        {
          "internalType": "address",
          "name": "token",
          "type": "address"
        },
        {
          "internalType": "uint256",
          "name": "threshold",
          "type": "uint256"
        }
      ],
      "name": "setThreshold",
      "outputs": [],
      "stateMutability": "nonpayable",
      "type": "function"
    },
    {
      "inputs": [
        {
          "internalType": "bytes32",
          "name": "role",
          "type": "bytes32"
        },
        {
          "internalType": "address",
          "name": "token",
          "type": "address"
        },
        {
          "internalType": "uint256",
          "name": "threshold",
          "type": "uint256"
        }
      ],
      "name": "setThresholdFromModule",
      "outputs": [],
      "stateMutability": "nonpayable",
      "type": "function"
    },
    {
      "inputs": [
        {
          "internalType": "bytes32",
          "name": "role",
          "type": "bytes32"
        },
        {
          "internalType": "bool",
          "name": "to",
          "type": "bool"
        }
      ],
      "name": "setTokenGated",
      "outputs": [],
      "stateMutability": "nonpayable",
      "type": "function"
    },
    {
      "inputs": [
        {
          "internalType": "bytes4",
          "name": "interfaceId",
          "type": "bytes4"
        }
      ],
      "name": "supportsInterface",
      "outputs": [
        {
          "internalType": "bool",
          "name": "",
          "type": "bool"
        }
      ],
      "stateMutability": "view",
      "type": "function"
    },
    {
      "inputs": [
        {
          "internalType": "bytes32",
          "name": "",
          "type": "bytes32"
        }
      ],
      "name": "thresholdMap",
      "outputs": [
        {
          "internalType": "uint256",
          "name": "",
          "type": "uint256"
        }
      ],
      "stateMutability": "view",
      "type": "function"
    },
    {
      "inputs": [],
      "name": "title",
      "outputs": [
        {
          "internalType": "string",
          "name": "",
          "type": "string"
        }
      ],
      "stateMutability": "view",
      "type": "function"
    },
    {
      "inputs": [
        {
          "internalType": "bytes32",
          "name": "roleId",
          "type": "bytes32"
        },
        {
          "internalType": "bytes32",
          "name": "newAdmin",
          "type": "bytes32"
        }
      ],
      "name": "transferAdminRole",
      "outputs": [],
      "stateMutability": "nonpayable",
      "type": "function"
    },
    {
      "inputs": [],
      "name": "url",
      "outputs": [
        {
          "internalType": "string",
          "name": "",
          "type": "string"
        }
      ],
      "stateMutability": "view",
      "type": "function"
    },
    {
      "inputs": [],
      "name": "version",
      "outputs": [
        {
          "internalType": "uint256",
          "name": "",
          "type": "uint256"
        },
        {
          "internalType": "uint256",
          "name": "",
          "type": "uint256"
        }
      ],
      "stateMutability": "view",
      "type": "function"
    }
  ],
  "bytecode": {
    "object": "0x60806040523480156200001157600080fd5b506200001c62000030565b6200002a60001980620000f2565b6200013d565b600054610100900460ff16156200009d5760405162461bcd60e51b815260206004820152602760248201527f496e697469616c697a61626c653a20636f6e747261637420697320696e697469604482015266616c697a696e6760c81b606482015260840160405180910390fd5b60005460ff9081161015620000f0576000805460ff191660ff9081179091556040519081527f7f26b83ff96e1f2b6a682f133852f6798a09c465da95921460cefb38474024989060200160405180910390a15b565b600082815260656020526040808220600101805490849055905190918391839186917fbd79b86ffe0ab8e8776151514217cd7cacd52c909f66475c3af44e129f0b00ff9190a4505050565b613258806200014d6000396000f3fe608060405234801561001057600080fd5b50600436106102d35760003560e01c806391d1485411610186578063bcb61920116100e3578063e38a584c11610097578063f3aafa7011610071578063f3aafa7014610617578063fb3127781461062a578063fdd5205f1461063857600080fd5b8063e38a584c146105de578063e5476cbe146105f1578063e99b6e131461060457600080fd5b8063ca15c873116100c8578063ca15c873146105a5578063d547741f146105b8578063e1788154146105cb57600080fd5b8063bcb619201461057f578063c8da80851461059257600080fd5b8063a291d0a81161013a578063b3cb19911161011f578063b3cb19911461054d578063b74795d914610556578063ba66f9fc1461056c57600080fd5b8063a291d0a814610527578063b3391c671461053a57600080fd5b80639bfdf7661161016b5780639bfdf766146104f95780639e9785751461050c578063a217fddf1461051f57600080fd5b806391d14854146104d357806399df6ff1146104e657600080fd5b806354fd4d501161023457806361bcd0c4116101e85780637448216d116101cd5780637448216d146104805780637998a1c4146104a05780639010d07c146104a857600080fd5b806361bcd0c41461045a5780636c67e8071461046d57600080fd5b80635600f04f116102195780635600f04f146104185780635b0209b9146104205780635b58890e1461043357600080fd5b806354fd4d50146103f057806355ff58d41461040b57600080fd5b8063328c4c301161028b57806336568abe1161027057806336568abe146103b557806342dfe958146103c85780634a79d50c146103db57600080fd5b8063328c4c301461037c57806335dde263146103a257600080fd5b806323add683116102bc57806323add68314610315578063248a9ca3146103385780632f2ff15d1461036957600080fd5b806301ffc9a7146102d857806316e109f814610300575b600080fd5b6102eb6102e636600461294d565b61068d565b60405190151581526020015b60405180910390f35b61031361030e3660046129a4565b6106e9565b005b6102eb6103233660046129dc565b60ce6020526000908152604090205460ff1681565b61035b6103463660046129dc565b60009081526065602052604090206001015490565b6040519081526020016102f7565b6103136103773660046129f5565b610715565b7f307830320000000000000000000000000000000000000000000000000000000061035b565b6103136103b03660046129a4565b61073f565b6103136103c33660046129f5565b61088b565b6103136103d6366004612b2c565b610917565b6103e3610a9d565b6040516102f79190612c58565b60ca5460cb54604080519283526020830191909152016102f7565b633078303160e01b61035b565b6103e3610b32565b61031361042e3660046129dc565b610b44565b61035b7f307830320000000000000000000000000000000000000000000000000000000081565b6103136104683660046129f5565b610d40565b61031361047b3660046129f5565b610d7a565b61035b61048e3660046129dc565b60cf6020526000908152604090205481565b61035b61103d565b6104bb6104b6366004612c6b565b61118d565b6040516001600160a01b0390911681526020016102f7565b6102eb6104e13660046129f5565b6111ac565b6103136104f43660046129f5565b6111ff565b610313610507366004612c8d565b611239565b6102eb61051a366004612cdd565b6112c3565b61035b600081565b6103136105353660046129a4565b6112e0565b6102eb6105483660046129f5565b6113d2565b61035b60001981565b60c95461010090046001600160a01b03166104bb565b61031361057a3660046129f5565b61142e565b61031361058d3660046129f5565b611513565b61035b6105a03660046129f5565b611761565b61035b6105b33660046129dc565b6117bf565b6103136105c63660046129f5565b6117d6565b6103136105d93660046129f5565b6117fb565b6103136105ec366004612c6b565b6118e0565b6103136105ff366004612d20565b611905565b6103136106123660046129dc565b6119b3565b6102eb6106253660046129f5565b611ad8565b61035b633078303160e01b81565b61035b610646366004612d45565b6040516bffffffffffffffffffffffff19606084901b1660208201526034810182905260009060540160405160208183030381529060405280519060200120905092915050565b60007fffffffff0000000000000000000000000000000000000000000000000000000082167f5a05180f0000000000000000000000000000000000000000000000000000000014806106e357506106e382611af0565b92915050565b60008381526065602052604090206001015461070481611b87565b61070f848484611b94565b50505050565b60008281526065602052604090206001015461073081611b87565b61073a8383611cc3565b505050565b3360c95461010090046001600160a01b03166040517f42f6e3890000000000000000000000000000000000000000000000000000000081526001600160a01b03838116600483015291909116906342f6e389906024016020604051808303816000875af11580156107b4573d6000803e3d6000fd5b505050506040513d601f19601f820116820180604052508101906107d89190612d71565b61081e576040517f18d61cb50000000000000000000000000000000000000000000000000000000081526001600160a01b03821660048201526024015b60405180910390fd5b600061086d335b866040516bffffffffffffffffffffffff19606084901b1660208201526034810182905260009060540160405160208183030381529060405280519060200120905092915050565b90506108798185611cc3565b610884818585611b94565b5050505050565b6001600160a01b03811633146109095760405162461bcd60e51b815260206004820152602f60248201527f416363657373436f6e74726f6c3a2063616e206f6e6c792072656e6f756e636560448201527f20726f6c657320666f722073656c6600000000000000000000000000000000006064820152608401610815565b6109138282611da0565b5050565b600054610100900460ff16158080156109375750600054600160ff909116105b806109515750303b158015610951575060005460ff166001145b6109c35760405162461bcd60e51b815260206004820152602e60248201527f496e697469616c697a61626c653a20636f6e747261637420697320616c72656160448201527f647920696e697469616c697a65640000000000000000000000000000000000006064820152608401610815565b6000805460ff191660011790558015610a0357600080547fffffffffffffffffffffffffffffffffffffffffffffffffffffffffffff00ff166101001790555b610a0d8484611e08565b60008083806020019051810190610a249190612d8e565b91509150610a328282611f74565b5050801561070f57600080547fffffffffffffffffffffffffffffffffffffffffffffffffffffffffffff00ff169055604051600181527f7f26b83ff96e1f2b6a682f133852f6798a09c465da95921460cefb3847402498906020015b60405180910390a150505050565b606060ca6003018054610aaf90612dbd565b80601f0160208091040260200160405190810160405280929190818152602001828054610adb90612dbd565b8015610b285780601f10610afd57610100808354040283529160200191610b28565b820191906000526020600020905b815481529060010190602001808311610b0b57829003601f168201915b5050505050905090565b606060ca6002018054610aaf90612dbd565b3360c95461010090046001600160a01b03166040517f42f6e3890000000000000000000000000000000000000000000000000000000081526001600160a01b03838116600483015291909116906342f6e389906024016020604051808303816000875af1158015610bb9573d6000803e3d6000fd5b505050506040513d601f19601f82011682018060405250810190610bdd9190612d71565b610c1e576040517f18d61cb50000000000000000000000000000000000000000000000000000000081526001600160a01b0382166004820152602401610815565b604080513360601b6bffffffffffffffffffffffff191660208083019190915260348083018690528351808403909101815260549092019092528051910120610c66816117bf565b15610c9d576040517f057913a900000000000000000000000000000000000000000000000000000000815260040160405180910390fd5b6000610cec335b856040516bffffffffffffffffffffffff19606084901b1660208201526034810182905260009060540160405160208183030381529060405280519060200120905092915050565b600081815260ce6020908152604091829020805460ff191660019081179091558251848152918201529192507f5b06680c3e27b6966fd07ba5a87e12511d3d350bb0e841c91958f34569b40b819101610a8f565b633078303160e01b610d5181611b87565b6000610d6e610ca460c9546001600160a01b036101009091041690565b905061070f8184611cc3565b600060c960019054906101000a90046001600160a01b03166001600160a01b031663d09edf316040518163ffffffff1660e01b8152600401602060405180830381865afa158015610dcf573d6000803e3d6000fd5b505050506040513d601f19601f82011682018060405250810190610df39190612e10565b90506000816001600160a01b03166355ff58d46040518163ffffffff1660e01b8152600401602060405180830381865afa158015610e35573d6000803e3d6000fd5b505050506040513d601f19601f82011682018060405250810190610e599190612e2d565b90506001600160a01b0382166391d1485482336040517fffffffff0000000000000000000000000000000000000000000000000000000060e085901b16815260048101929092526001600160a01b03166024820152604401602060405180830381865afa158015610ece573d6000803e3d6000fd5b505050506040513d601f19601f82011682018060405250810190610ef29190612d71565b610f3d5780335b6040517f42abbb7700000000000000000000000000000000000000000000000000000000815260048101929092526001600160a01b03166024820152604401610815565b600060c960019054906101000a90046001600160a01b03166001600160a01b031663d09edf316040518163ffffffff1660e01b8152600401602060405180830381865afa158015610f92573d6000803e3d6000fd5b505050506040513d601f19601f82011682018060405250810190610fb69190612e10565b6040517fe1788154000000000000000000000000000000000000000000000000000000008152600481018790526001600160a01b0386811660248301529192509082169063e1788154906044015b600060405180830381600087803b15801561101e57600080fd5b505af1158015611032573d6000803e3d6000fd5b505050505050505050565b6040805160808101825260ca8054825260cb54602083015260cc80546000946111889493929084019161106f90612dbd565b80601f016020809104026020016040519081016040528092919081815260200182805461109b90612dbd565b80156110e85780601f106110bd576101008083540402835291602001916110e8565b820191906000526020600020905b8154815290600101906020018083116110cb57829003601f168201915b5050505050815260200160038201805461110190612dbd565b80601f016020809104026020016040519081016040528092919081815260200182805461112d90612dbd565b801561117a5780601f1061114f5761010080835404028352916020019161117a565b820191906000526020600020905b81548152906001019060200180831161115d57829003601f168201915b5050505050815250506120c8565b905090565b60008281526097602052604081206111a59083612108565b9392505050565b600082815260ce602052604081205460ff16156111d4576111cd8383612114565b90506106e3565b60008381526065602090815260408083206001600160a01b038616845290915290205460ff166111cd565b633078303160e01b61121081611b87565b600061122d610ca460c9546001600160a01b036101009091041690565b905061070f8184611da0565b60c95460ff1615611276576040517f904875a100000000000000000000000000000000000000000000000000000000815260040160405180910390fd5b60c9805460ff191660011790558061128d8161224a565b61073a576040517feef043ae00000000000000000000000000000000000000000000000000000000815260040160405180910390fd5b6000818060200190518101906112d99190612e46565b5092915050565b3360c95461010090046001600160a01b03166040517f42f6e3890000000000000000000000000000000000000000000000000000000081526001600160a01b03838116600483015291909116906342f6e389906024016020604051808303816000875af1158015611355573d6000803e3d6000fd5b505050506040513d601f19601f820116820180604052508101906113799190612d71565b6113ba576040517f18d61cb50000000000000000000000000000000000000000000000000000000081526001600160a01b0382166004820152602401610815565b60006113c533610825565b9050610884818585611b94565b600082815260ce6020526040812054839060ff1661141c576040517fd98c6d8300000000000000000000000000000000000000000000000000000000815260040160405180910390fd5b6114268484612114565b949350505050565b3360c95461010090046001600160a01b03166040517f42f6e3890000000000000000000000000000000000000000000000000000000081526001600160a01b03838116600483015291909116906342f6e389906024016020604051808303816000875af11580156114a3573d6000803e3d6000fd5b505050506040513d601f19601f820116820180604052508101906114c79190612d71565b611508576040517f18d61cb50000000000000000000000000000000000000000000000000000000081526001600160a01b0382166004820152602401610815565b600061122d33610ca4565b600060c960019054906101000a90046001600160a01b03166001600160a01b031663d09edf316040518163ffffffff1660e01b8152600401602060405180830381865afa158015611568573d6000803e3d6000fd5b505050506040513d601f19601f8201168201806040525081019061158c9190612e10565b90506000816001600160a01b03166355ff58d46040518163ffffffff1660e01b8152600401602060405180830381865afa1580156115ce573d6000803e3d6000fd5b505050506040513d601f19601f820116820180604052508101906115f29190612e2d565b90506001600160a01b0382166391d1485482336040517fffffffff0000000000000000000000000000000000000000000000000000000060e085901b16815260048101929092526001600160a01b03166024820152604401602060405180830381865afa158015611667573d6000803e3d6000fd5b505050506040513d601f19601f8201168201806040525081019061168b9190612d71565b611696578033610ef9565b600060c960019054906101000a90046001600160a01b03166001600160a01b031663d09edf316040518163ffffffff1660e01b8152600401602060405180830381865afa1580156116eb573d6000803e3d6000fd5b505050506040513d601f19601f8201168201806040525081019061170f9190612e10565b6040517fba66f9fc000000000000000000000000000000000000000000000000000000008152600481018790526001600160a01b0386811660248301529192509082169063ba66f9fc90604401611004565b600080838360405160200161179292919091825260601b6bffffffffffffffffffffffff1916602082015260340190565b60408051808303601f190181529181528151602092830120600090815260cf909252902054949350505050565b60008181526097602052604081206106e39061234b565b6000828152606560205260409020600101546117f181611b87565b61073a8383611da0565b3360c95461010090046001600160a01b03166040517f42f6e3890000000000000000000000000000000000000000000000000000000081526001600160a01b03838116600483015291909116906342f6e389906024016020604051808303816000875af1158015611870573d6000803e3d6000fd5b505050506040513d601f19601f820116820180604052508101906118949190612d71565b6118d5576040517f18d61cb50000000000000000000000000000000000000000000000000000000081526001600160a01b0382166004820152602401610815565b6000610d6e33610ca4565b6000828152606560205260409020600101546118fb81611b87565b61073a8383612355565b60008281526065602052604090206001015461192081611b87565b8261192a816117bf565b15611961576040517f057913a900000000000000000000000000000000000000000000000000000000815260040160405180910390fd5b600084815260ce6020908152604091829020805460ff19168615159081179091558251878152918201527f5b06680c3e27b6966fd07ba5a87e12511d3d350bb0e841c91958f34569b40b819101610a8f565b3360c95461010090046001600160a01b03166040517f42f6e3890000000000000000000000000000000000000000000000000000000081526001600160a01b03838116600483015291909116906342f6e389906024016020604051808303816000875af1158015611a28573d6000803e3d6000fd5b505050506040513d601f19601f82011682018060405250810190611a4c9190612d71565b611a8d576040517f18d61cb50000000000000000000000000000000000000000000000000000000081526001600160a01b0382166004820152602401610815565b604080513360601b6bffffffffffffffffffffffff19166020808301919091526034808301869052835180840390910181526054909201909252805191012061073a81600019612355565b600080611ae433610ca4565b905061142681846111ac565b60007fffffffff0000000000000000000000000000000000000000000000000000000082167f7965db0b0000000000000000000000000000000000000000000000000000000014806106e357507f01ffc9a7000000000000000000000000000000000000000000000000000000007fffffffff000000000000000000000000000000000000000000000000000000008316146106e3565b611b9181336123a0565b50565b600083815260ce6020526040902054839060ff16611bde576040517fd98c6d8300000000000000000000000000000000000000000000000000000000815260040160405180910390fd5b8180600003611c1c576040517f2c7f1ba100000000000000000000000000000000000000000000000000000000815260048101829052602401610815565b60008585604051602001611c4c92919091825260601b6bffffffffffffffffffffffff1916602082015260340190565b60408051808303601f190181528282528051602091820120600081815260cf83528390208890558984526001600160a01b0389169184019190915290820186905291507ea848dc7e0a97518071981b0bbbf38d0ce61086c12106156c3fed80f80047149060600160405180910390a1505050505050565b600082815260ce602052604090205460ff1615611d96576040517f70a082310000000000000000000000000000000000000000000000000000000081523060048201526001600160a01b038216906370a0823190602401602060405180830381865afa925050508015611d53575060408051601f3d908101601f19168201909252611d5091810190612e2d565b60015b611d94576040517f410217780000000000000000000000000000000000000000000000000000000081526001600160a01b0382166004820152602401610815565b505b61091382826123f9565b81633078303160e01b81148015611dc757506001611dc4633078303160e01b6117bf565b11155b15611dfe576040517f73a9f13900000000000000000000000000000000000000000000000000000000815260040160405180910390fd5b61073a838361241b565b600054610100900460ff16611e855760405162461bcd60e51b815260206004820152602b60248201527f496e697469616c697a61626c653a20636f6e7472616374206973206e6f74206960448201527f6e697469616c697a696e670000000000000000000000000000000000000000006064820152608401610815565b6001600160a01b038216611ec5576040517f7280679300000000000000000000000000000000000000000000000000000000815260040160405180910390fd5b60c980547fffffffffffffffffffffff0000000000000000000000000000000000000000ff166101006001600160a01b03851602179055611f058161243d565b611f3b576040517f7511254100000000000000000000000000000000000000000000000000000000815260040160405180910390fd5b805160ca908155602082015160cb55604082015182919060cc90611f5f9082612fa9565b50606082015160038201906108849082612fa9565b600054610100900460ff16611ff15760405162461bcd60e51b815260206004820152602b60248201527f496e697469616c697a61626c653a20636f6e7472616374206973206e6f74206960448201527f6e697469616c697a696e670000000000000000000000000000000000000000006064820152608401610815565b612002633078303160e01b33611cc3565b612013633078303160e01b80612355565b6120256000633078303160e01b612355565b6120567f3078303200000000000000000000000000000000000000000000000000000000633078303160e01b612355565b6120807f307830320000000000000000000000000000000000000000000000000000000082611cc3565b6001600160a01b038216158015906120a157506001600160a01b0382163314155b15610913576120b7633078303160e01b83611cc3565b610913633078303160e01b3361088b565b60008160000151826040015183606001516040516020016120eb93929190613069565b604051602081830303815290604052805190602001209050919050565b60006111a5838361248f565b600080612120846117bf565b905060005b8181101561223f576000612139868361118d565b90506000868260405160200161216b92919091825260601b6bffffffffffffffffffffffff1916602082015260340190565b60408051808303601f190181528282528051602091820120600081815260cf909252919020547f70a082310000000000000000000000000000000000000000000000000000000083526001600160a01b03898116600485015291935091908416906370a0823190602401602060405180830381865afa92505050801561220e575060408051601f3d908101601f1916820190925261220b91810190612e2d565b60015b1561222b5781811061222957600196505050505050506106e3565b505b50505080612238906130d5565b9050612125565b506000949350505050565b6040517f9e9785750000000000000000000000000000000000000000000000000000000081526000903090639e97857590612289908590600401612c58565b602060405180830381865afa9250505080156122c2575060408051601f3d908101601f191682019092526122bf91810190612d71565b60015b6122ce57506000919050565b6040517f9e9785750000000000000000000000000000000000000000000000000000000081523090639e9785759061230a908690600401612c58565b602060405180830381865afa158015612327573d6000803e3d6000fd5b505050506040513d601f19601f820116820180604052508101906111a59190612d71565b60006106e3825490565b600082815260656020526040808220600101805490849055905190918391839186917fbd79b86ffe0ab8e8776151514217cd7cacd52c909f66475c3af44e129f0b00ff9190a4505050565b6123aa82826111ac565b610913576123b7816124b9565b6123c28360206124cb565b6040516020016123d39291906130ef565b60408051601f198184030181529082905262461bcd60e51b825261081591600401612c58565b61240382826126f4565b600082815260976020526040902061073a908261277a565b612425828261278f565b600082815260976020526040902061073a90826127f6565b600081604001515160000361245457506000919050565b81606001515160000361246957506000919050565b815115801561247a57506020820151155b1561248757506000919050565b506001919050565b60008260000182815481106124a6576124a6613170565b9060005260206000200154905092915050565b60606106e36001600160a01b03831660145b606060006124da83600261319f565b6124e59060026131b6565b67ffffffffffffffff8111156124fd576124fd612a25565b6040519080825280601f01601f191660200182016040528015612527576020820181803683370190505b5090507f30000000000000000000000000000000000000000000000000000000000000008160008151811061255e5761255e613170565b60200101907effffffffffffffffffffffffffffffffffffffffffffffffffffffffffffff1916908160001a9053507f7800000000000000000000000000000000000000000000000000000000000000816001815181106125c1576125c1613170565b60200101907effffffffffffffffffffffffffffffffffffffffffffffffffffffffffffff1916908160001a90535060006125fd84600261319f565b6126089060016131b6565b90505b60018111156126a5577f303132333435363738396162636465660000000000000000000000000000000085600f166010811061264957612649613170565b1a60f81b82828151811061265f5761265f613170565b60200101907effffffffffffffffffffffffffffffffffffffffffffffffffffffffffffff1916908160001a90535060049490941c9361269e816131c9565b905061260b565b5083156111a55760405162461bcd60e51b815260206004820181905260248201527f537472696e67733a20686578206c656e67746820696e73756666696369656e746044820152606401610815565b6126fe82826111ac565b6109135760008281526065602090815260408083206001600160a01b03851684529091529020805460ff191660011790556127363390565b6001600160a01b0316816001600160a01b0316837f2f8788117e7eff1d82e926ec794901d17c78024a50270940304540a733656f0d60405160405180910390a45050565b60006111a5836001600160a01b03841661280b565b61279982826111ac565b156109135760008281526065602090815260408083206001600160a01b0385168085529252808320805460ff1916905551339285917ff6391f5c32d9c69d2a47ea670b442974b53935d1edc7fd64eb21e047a839171b9190a45050565b60006111a5836001600160a01b03841661285a565b6000818152600183016020526040812054612852575081546001818101845560008481526020808220909301849055845484825282860190935260409020919091556106e3565b5060006106e3565b6000818152600183016020526040812054801561294357600061287e6001836131e0565b8554909150600090612892906001906131e0565b90508181146128f75760008660000182815481106128b2576128b2613170565b90600052602060002001549050808760000184815481106128d5576128d5613170565b6000918252602080832090910192909255918252600188019052604090208390555b8554869080612908576129086131f3565b6001900381819060005260206000200160009055905585600101600086815260200190815260200160002060009055600193505050506106e3565b60009150506106e3565b60006020828403121561295f57600080fd5b81357fffffffff00000000000000000000000000000000000000000000000000000000811681146111a557600080fd5b6001600160a01b0381168114611b9157600080fd5b6000806000606084860312156129b957600080fd5b8335925060208401356129cb8161298f565b929592945050506040919091013590565b6000602082840312156129ee57600080fd5b5035919050565b60008060408385031215612a0857600080fd5b823591506020830135612a1a8161298f565b809150509250929050565b7f4e487b7100000000000000000000000000000000000000000000000000000000600052604160045260246000fd5b6040516080810167ffffffffffffffff81118282101715612a7757612a77612a25565b60405290565b604051601f8201601f1916810167ffffffffffffffff81118282101715612aa657612aa6612a25565b604052919050565b600067ffffffffffffffff821115612ac857612ac8612a25565b50601f01601f191660200190565b600082601f830112612ae757600080fd5b8135612afa612af582612aae565b612a7d565b818152846020838601011115612b0f57600080fd5b816020850160208301376000918101602001919091529392505050565b600080600060608486031215612b4157600080fd5b8335612b4c8161298f565b9250602084013567ffffffffffffffff80821115612b6957600080fd5b9085019060808288031215612b7d57600080fd5b612b85612a54565b8235815260208301356020820152604083013582811115612ba557600080fd5b612bb189828601612ad6565b604083015250606083013582811115612bc957600080fd5b612bd589828601612ad6565b60608301525093506040860135915080821115612bf157600080fd5b50612bfe86828701612ad6565b9150509250925092565b60005b83811015612c23578181015183820152602001612c0b565b50506000910152565b60008151808452612c44816020860160208601612c08565b601f01601f19169290920160200192915050565b6020815260006111a56020830184612c2c565b60008060408385031215612c7e57600080fd5b50508035926020909101359150565b60008060408385031215612ca057600080fd5b8235612cab8161298f565b9150602083013567ffffffffffffffff811115612cc757600080fd5b612cd385828601612ad6565b9150509250929050565b600060208284031215612cef57600080fd5b813567ffffffffffffffff811115612d0657600080fd5b61142684828501612ad6565b8015158114611b9157600080fd5b60008060408385031215612d3357600080fd5b823591506020830135612a1a81612d12565b60008060408385031215612d5857600080fd5b8235612d638161298f565b946020939093013593505050565b600060208284031215612d8357600080fd5b81516111a581612d12565b60008060408385031215612da157600080fd5b8251612dac8161298f565b6020840151909250612a1a8161298f565b600181811c90821680612dd157607f821691505b602082108103612e0a577f4e487b7100000000000000000000000000000000000000000000000000000000600052602260045260246000fd5b50919050565b600060208284031215612e2257600080fd5b81516111a58161298f565b600060208284031215612e3f57600080fd5b5051919050565b6000806040808486031215612e5a57600080fd5b8351612e6581612d12565b8093505060208085015167ffffffffffffffff80821115612e8557600080fd5b818701915087601f830112612e9957600080fd5b815181811115612eab57612eab612a25565b8060051b612eba858201612a7d565b918252838101850191858101908b841115612ed457600080fd5b86860192505b83831015612f4957825185811115612ef25760008081fd5b8601603f81018d13612f045760008081fd5b87810151612f14612af582612aae565b8181528e8b838501011115612f295760008081fd5b612f38828b83018d8601612c08565b845250509186019190860190612eda565b80985050505050505050509250929050565b601f82111561073a57600081815260208120601f850160051c81016020861015612f825750805b601f850160051c820191505b81811015612fa157828155600101612f8e565b505050505050565b815167ffffffffffffffff811115612fc357612fc3612a25565b612fd781612fd18454612dbd565b84612f5b565b602080601f83116001811461300c5760008415612ff45750858301515b600019600386901b1c1916600185901b178555612fa1565b600085815260208120601f198616915b8281101561303b5788860151825594840194600190910190840161301c565b50858210156130595787850151600019600388901b60f8161c191681555b5050505050600190811b01905550565b83815260008351613081816020850160208801612c08565b80830190508351613099816020840160208801612c08565b0160200195945050505050565b7f4e487b7100000000000000000000000000000000000000000000000000000000600052601160045260246000fd5b600060001982036130e8576130e86130a6565b5060010190565b7f416363657373436f6e74726f6c3a206163636f756e7420000000000000000000815260008351613127816017850160208801612c08565b7f206973206d697373696e6720726f6c65200000000000000000000000000000006017918401918201528351613164816028840160208801612c08565b01602801949350505050565b7f4e487b7100000000000000000000000000000000000000000000000000000000600052603260045260246000fd5b80820281158282048414176106e3576106e36130a6565b808201808211156106e3576106e36130a6565b6000816131d8576131d86130a6565b506000190190565b818103818111156106e3576106e36130a6565b7f4e487b7100000000000000000000000000000000000000000000000000000000600052603160045260246000fdfea26469706673582212208cb6f7a45be9ea0efb00234e23289b7cd4383f85a1c62bddb6cd102a8685bf3f64736f6c63430008130033",
    "linkReferences": {}
  },
  "methodIdentifiers": {
    "BURN_ADMIN_ROLE()": "b3cb1991",
    "DEFAULT_ADMIN_ROLE()": "a217fddf",
    "ORCHESTRATOR_MANAGER_ROLE()": "5b58890e",
    "ORCHESTRATOR_OWNER_ROLE()": "fb312778",
    "burnAdminFromModuleRole(bytes32)": "e99b6e13",
    "decoder(bytes)": "9e978575",
    "generateRoleId(address,bytes32)": "fdd5205f",
    "getManagerRole()": "328c4c30",
    "getOwnerRole()": "55ff58d4",
    "getRoleAdmin(bytes32)": "248a9ca3",
    "getRoleMember(bytes32,uint256)": "9010d07c",
    "getRoleMemberCount(bytes32)": "ca15c873",
    "getThresholdValue(bytes32,address)": "c8da8085",
    "grantGlobalRole(bytes32,address)": "61bcd0c4",
    "grantModuleRole(bytes32,address)": "6c67e807",
    "grantRole(bytes32,address)": "2f2ff15d",
    "grantRoleFromModule(bytes32,address)": "e1788154",
    "grantTokenRoleFromModule(bytes32,address,uint256)": "35dde263",
    "hasModuleRole(bytes32,address)": "f3aafa70",
    "hasRole(bytes32,address)": "91d14854",
    "hasTokenRole(bytes32,address)": "b3391c67",
    "identifier()": "7998a1c4",
    "init(address,(uint256,uint256,string,string),bytes)": "42dfe958",
    "init2(address,bytes)": "9bfdf766",
    "isTokenGated(bytes32)": "23add683",
    "makeRoleTokenGatedFromModule(bytes32)": "5b0209b9",
    "orchestrator()": "b74795d9",
    "renounceRole(bytes32,address)": "36568abe",
    "revokeGlobalRole(bytes32,address)": "99df6ff1",
    "revokeModuleRole(bytes32,address)": "bcb61920",
    "revokeRole(bytes32,address)": "d547741f",
    "revokeRoleFromModule(bytes32,address)": "ba66f9fc",
    "setThreshold(bytes32,address,uint256)": "16e109f8",
    "setThresholdFromModule(bytes32,address,uint256)": "a291d0a8",
    "setTokenGated(bytes32,bool)": "e5476cbe",
    "supportsInterface(bytes4)": "01ffc9a7",
    "thresholdMap(bytes32)": "7448216d",
    "title()": "4a79d50c",
    "transferAdminRole(bytes32,bytes32)": "e38a584c",
    "url()": "5600f04f",
    "version()": "54fd4d50"
  },
  "id": 84
}